{"abi":[{"type":"constructor","inputs":[],"stateMutability":"nonpayable"},{"type":"function","name":"DEFAULT_ADMIN_ROLE","inputs":[],"outputs":[{"name":"","type":"bytes32","internalType":"bytes32"}],"stateMutability":"view"},{"type":"function","name":"MINTER_ROLE","inputs":[],"outputs":[{"name":"","type":"bytes32","internalType":"bytes32"}],"stateMutability":"view"},{"type":"function","name":"allowance","inputs":[{"name":"owner","type":"address","internalType":"address"},{"name":"spender","type":"address","internalType":"address"}],"outputs":[{"name":"","type":"uint256","internalType":"uint256"}],"stateMutability":"view"},{"type":"function","name":"approve","inputs":[{"name":"spender","type":"address","internalType":"address"},{"name":"value","type":"uint256","internalType":"uint256"}],"outputs":[{"name":"","type":"bool","internalType":"bool"}],"stateMutability":"nonpayable"},{"type":"function","name":"balanceOf","inputs":[{"name":"account","type":"address","internalType":"address"}],"outputs":[{"name":"","type":"uint256","internalType":"uint256"}],"stateMutability":"view"},{"type":"function","name":"decimals","inputs":[],"outputs":[{"name":"","type":"uint8","internalType":"uint8"}],"stateMutability":"view"},{"type":"function","name":"getRoleAdmin","inputs":[{"name":"role","type":"bytes32","internalType":"bytes32"}],"outputs":[{"name":"","type":"bytes32","internalType":"bytes32"}],"stateMutability":"view"},{"type":"function","name":"grantRole","inputs":[{"name":"role","type":"bytes32","internalType":"bytes32"},{"name":"account","type":"address","internalType":"address"}],"outputs":[],"stateMutability":"nonpayable"},{"type":"function","name":"hasRole","inputs":[{"name":"role","type":"bytes32","internalType":"bytes32"},{"name":"account","type":"address","internalType":"address"}],"outputs":[{"name":"","type":"bool","internalType":"bool"}],"stateMutability":"view"},{"type":"function","name":"mint","inputs":[{"name":"to","type":"address","internalType":"address"},{"name":"amount","type":"uint256","internalType":"uint256"}],"outputs":[],"stateMutability":"nonpayable"},{"type":"function","name":"name","inputs":[],"outputs":[{"name":"","type":"string","internalType":"string"}],"stateMutability":"view"},{"type":"function","name":"renounceRole","inputs":[{"name":"role","type":"bytes32","internalType":"bytes32"},{"name":"callerConfirmation","type":"address","internalType":"address"}],"outputs":[],"stateMutability":"nonpayable"},{"type":"function","name":"revokeRole","inputs":[{"name":"role","type":"bytes32","internalType":"bytes32"},{"name":"account","type":"address","internalType":"address"}],"outputs":[],"stateMutability":"nonpayable"},{"type":"function","name":"supportsInterface","inputs":[{"name":"interfaceId","type":"bytes4","internalType":"bytes4"}],"outputs":[{"name":"","type":"bool","internalType":"bool"}],"stateMutability":"view"},{"type":"function","name":"symbol","inputs":[],"outputs":[{"name":"","type":"string","internalType":"string"}],"stateMutability":"view"},{"type":"function","name":"totalSupply","inputs":[],"outputs":[{"name":"","type":"uint256","internalType":"uint256"}],"stateMutability":"view"},{"type":"function","name":"transfer","inputs":[{"name":"to","type":"address","internalType":"address"},{"name":"value","type":"uint256","internalType":"uint256"}],"outputs":[{"name":"","type":"bool","internalType":"bool"}],"stateMutability":"nonpayable"},{"type":"function","name":"transferFrom","inputs":[{"name":"from","type":"address","internalType":"address"},{"name":"to","type":"address","internalType":"address"},{"name":"value","type":"uint256","internalType":"uint256"}],"outputs":[{"name":"","type":"bool","internalType":"bool"}],"stateMutability":"nonpayable"},{"type":"event","name":"Approval","inputs":[{"name":"owner","type":"address","indexed":true,"internalType":"address"},{"name":"spender","type":"address","indexed":true,"internalType":"address"},{"name":"value","type":"uint256","indexed":false,"internalType":"uint256"}],"anonymous":false},{"type":"event","name":"RoleAdminChanged","inputs":[{"name":"role","type":"bytes32","indexed":true,"internalType":"bytes32"},{"name":"previousAdminRole","type":"bytes32","indexed":true,"internalType":"bytes32"},{"name":"newAdminRole","type":"bytes32","indexed":true,"internalType":"bytes32"}],"anonymous":false},{"type":"event","name":"RoleGranted","inputs":[{"name":"role","type":"bytes32","indexed":true,"internalType":"bytes32"},{"name":"account","type":"address","indexed":true,"internalType":"address"},{"name":"sender","type":"address","indexed":true,"internalType":"address"}],"anonymous":false},{"type":"event","name":"RoleRevoked","inputs":[{"name":"role","type":"bytes32","indexed":true,"internalType":"bytes32"},{"name":"account","type":"address","indexed":true,"internalType":"address"},{"name":"sender","type":"address","indexed":true,"internalType":"address"}],"anonymous":false},{"type":"event","name":"Transfer","inputs":[{"name":"from","type":"address","indexed":true,"internalType":"address"},{"name":"to","type":"address","indexed":true,"internalType":"address"},{"name":"value","type":"uint256","indexed":false,"internalType":"uint256"}],"anonymous":false},{"type":"error","name":"AccessControlBadConfirmation","inputs":[]},{"type":"error","name":"AccessControlUnauthorizedAccount","inputs":[{"name":"account","type":"address","internalType":"address"},{"name":"neededRole","type":"bytes32","internalType":"bytes32"}]},{"type":"error","name":"ERC20InsufficientAllowance","inputs":[{"name":"spender","type":"address","internalType":"address"},{"name":"allowance","type":"uint256","internalType":"uint256"},{"name":"needed","type":"uint256","internalType":"uint256"}]},{"type":"error","name":"ERC20InsufficientBalance","inputs":[{"name":"sender","type":"address","internalType":"address"},{"name":"balance","type":"uint256","internalType":"uint256"},{"name":"needed","type":"uint256","internalType":"uint256"}]},{"type":"error","name":"ERC20InvalidApprover","inputs":[{"name":"approver","type":"address","internalType":"address"}]},{"type":"error","name":"ERC20InvalidReceiver","inputs":[{"name":"receiver","type":"address","internalType":"address"}]},{"type":"error","name":"ERC20InvalidSender","inputs":[{"name":"sender","type":"address","internalType":"address"}]},{"type":"error","name":"ERC20InvalidSpender","inputs":[{"name":"spender","type":"address","internalType":"address"}]},{"type":"error","name":"UnauthorizedMinter","inputs":[{"name":"caller","type":"address","internalType":"address"}]}],"bytecode":{"object":"0x608060405234801562000010575f80fd5b506040518060400160405280600a81526020017f4d61676963546f6b656e000000000000000000000000000000000000000000008152506040518060400160405280600581526020017f4d4147494300000000000000000000000000000000000000000000000000000081525081600390816200008e919062000489565b508060049081620000a0919062000489565b505050620000b75f801b33620000be60201b60201c565b506200056d565b5f620000d18383620001ba60201b60201c565b620001b057600160055f8581526020019081526020015f205f015f8473ffffffffffffffffffffffffffffffffffffffff1673ffffffffffffffffffffffffffffffffffffffff1681526020019081526020015f205f6101000a81548160ff0219169083151502179055506200014c6200021e60201b60201c565b73ffffffffffffffffffffffffffffffffffffffff168273ffffffffffffffffffffffffffffffffffffffff16847f2f8788117e7eff1d82e926ec794901d17c78024a50270940304540a733656f0d60405160405180910390a460019050620001b4565b5f90505b92915050565b5f60055f8481526020019081526020015f205f015f8373ffffffffffffffffffffffffffffffffffffffff1673ffffffffffffffffffffffffffffffffffffffff1681526020019081526020015f205f9054906101000a900460ff16905092915050565b5f33905090565b5f81519050919050565b7f4e487b71000000000000000000000000000000000000000000000000000000005f52604160045260245ffd5b7f4e487b71000000000000000000000000000000000000000000000000000000005f52602260045260245ffd5b5f6002820490506001821680620002a157607f821691505b602082108103620002b757620002b66200025c565b5b50919050565b5f819050815f5260205f209050919050565b5f6020601f8301049050919050565b5f82821b905092915050565b5f600883026200031b7fffffffffffffffffffffffffffffffffffffffffffffffffffffffffffffffff82620002de565b620003278683620002de565b95508019841693508086168417925050509392505050565b5f819050919050565b5f819050919050565b5f620003716200036b62000365846200033f565b62000348565b6200033f565b9050919050565b5f819050919050565b6200038c8362000351565b620003a46200039b8262000378565b848454620002ea565b825550505050565b5f90565b620003ba620003ac565b620003c781848462000381565b505050565b5b81811015620003ee57620003e25f82620003b0565b600181019050620003cd565b5050565b601f8211156200043d576200040781620002bd565b6200041284620002cf565b8101602085101562000422578190505b6200043a6200043185620002cf565b830182620003cc565b50505b505050565b5f82821c905092915050565b5f6200045f5f198460080262000442565b1980831691505092915050565b5f6200047983836200044e565b9150826002028217905092915050565b620004948262000225565b67ffffffffffffffff811115620004b057620004af6200022f565b5b620004bc825462000289565b620004c9828285620003f2565b5f60209050601f831160018114620004ff575f8415620004ea578287015190505b620004f685826200046c565b86555062000565565b601f1984166200050f86620002bd565b5f5b82811015620005385784890151825560018201915060208501945060208101905062000511565b8683101562000558578489015162000554601f8916826200044e565b8355505b6001600288020188555050505b505050505050565b611663806200057b5f395ff3fe608060405234801561000f575f80fd5b5060043610610114575f3560e01c806340c10f19116100a0578063a217fddf1161006f578063a217fddf14610304578063a9059cbb14610322578063d539139314610352578063d547741f14610370578063dd62ed3e1461038c57610114565b806340c10f191461026a57806370a082311461028657806391d14854146102b657806395d89b41146102e657610114565b806323b872dd116100e757806323b872dd146101b4578063248a9ca3146101e45780632f2ff15d14610214578063313ce5671461023057806336568abe1461024e57610114565b806301ffc9a71461011857806306fdde0314610148578063095ea7b31461016657806318160ddd14610196575b5f80fd5b610132600480360381019061012d9190611140565b6103bc565b60405161013f9190611185565b60405180910390f35b610150610435565b60405161015d9190611228565b60405180910390f35b610180600480360381019061017b91906112d5565b6104c5565b60405161018d9190611185565b60405180910390f35b61019e6104e7565b6040516101ab9190611322565b60405180910390f35b6101ce60048036038101906101c9919061133b565b6104f0565b6040516101db9190611185565b60405180910390f35b6101fe60048036038101906101f991906113be565b61051e565b60405161020b91906113f8565b60405180910390f35b61022e60048036038101906102299190611411565b61053b565b005b61023861055d565b604051610245919061146a565b60405180910390f35b61026860048036038101906102639190611411565b610565565b005b610284600480360381019061027f91906112d5565b6105e0565b005b6102a0600480360381019061029b9190611483565b610619565b6040516102ad9190611322565b60405180910390f35b6102d060048036038101906102cb9190611411565b61065e565b6040516102dd9190611185565b60405180910390f35b6102ee6106c2565b6040516102fb9190611228565b60405180910390f35b61030c610752565b60405161031991906113f8565b60405180910390f35b61033c600480360381019061033791906112d5565b610758565b6040516103499190611185565b60405180910390f35b61035a61077a565b60405161036791906113f8565b60405180910390f35b61038a60048036038101906103859190611411565b61079e565b005b6103a660048036038101906103a191906114ae565b6107c0565b6040516103b39190611322565b60405180910390f35b5f7f7965db0b000000000000000000000000000000000000000000000000000000007bffffffffffffffffffffffffffffffffffffffffffffffffffffffff1916827bffffffffffffffffffffffffffffffffffffffffffffffffffffffff1916148061042e575061042d82610842565b5b9050919050565b60606003805461044490611519565b80601f016020809104026020016040519081016040528092919081815260200182805461047090611519565b80156104bb5780601f10610492576101008083540402835291602001916104bb565b820191905f5260205f20905b81548152906001019060200180831161049e57829003601f168201915b5050505050905090565b5f806104cf6108ab565b90506104dc8185856108b2565b600191505092915050565b5f600254905090565b5f806104fa6108ab565b90506105078582856108c4565b610512858585610957565b60019150509392505050565b5f60055f8381526020019081526020015f20600101549050919050565b6105448261051e565b61054d81610a47565b6105578383610a5b565b50505050565b5f6012905090565b61056d6108ab565b73ffffffffffffffffffffffffffffffffffffffff168173ffffffffffffffffffffffffffffffffffffffff16146105d1576040517f6697b23200000000000000000000000000000000000000000000000000000000815260040160405180910390fd5b6105db8282610b45565b505050565b7f9f2df0fed2c77648de5860a4cc508cd0818c85b8b8a1ab4ceeef8d981c8956a661060a81610a47565b6106148383610c2f565b505050565b5f805f8373ffffffffffffffffffffffffffffffffffffffff1673ffffffffffffffffffffffffffffffffffffffff1681526020019081526020015f20549050919050565b5f60055f8481526020019081526020015f205f015f8373ffffffffffffffffffffffffffffffffffffffff1673ffffffffffffffffffffffffffffffffffffffff1681526020019081526020015f205f9054906101000a900460ff16905092915050565b6060600480546106d190611519565b80601f01602080910402602001604051908101604052809291908181526020018280546106fd90611519565b80156107485780601f1061071f57610100808354040283529160200191610748565b820191905f5260205f20905b81548152906001019060200180831161072b57829003601f168201915b5050505050905090565b5f801b81565b5f806107626108ab565b905061076f818585610957565b600191505092915050565b7f9f2df0fed2c77648de5860a4cc508cd0818c85b8b8a1ab4ceeef8d981c8956a681565b6107a78261051e565b6107b081610a47565b6107ba8383610b45565b50505050565b5f60015f8473ffffffffffffffffffffffffffffffffffffffff1673ffffffffffffffffffffffffffffffffffffffff1681526020019081526020015f205f8373ffffffffffffffffffffffffffffffffffffffff1673ffffffffffffffffffffffffffffffffffffffff1681526020019081526020015f2054905092915050565b5f7f01ffc9a7000000000000000000000000000000000000000000000000000000007bffffffffffffffffffffffffffffffffffffffffffffffffffffffff1916827bffffffffffffffffffffffffffffffffffffffffffffffffffffffff1916149050919050565b5f33905090565b6108bf8383836001610cae565b505050565b5f6108cf84846107c0565b90507fffffffffffffffffffffffffffffffffffffffffffffffffffffffffffffffff8110156109515781811015610942578281836040517ffb8f41b200000000000000000000000000000000000000000000000000000000815260040161093993929190611558565b60405180910390fd5b61095084848484035f610cae565b5b50505050565b5f73ffffffffffffffffffffffffffffffffffffffff168373ffffffffffffffffffffffffffffffffffffffff16036109c7575f6040517f96c6fd1e0000000000000000000000000000000000000000000000000000000081526004016109be919061158d565b60405180910390fd5b5f73ffffffffffffffffffffffffffffffffffffffff168273ffffffffffffffffffffffffffffffffffffffff1603610a37575f6040517fec442f05000000000000000000000000000000000000000000000000000000008152600401610a2e919061158d565b60405180910390fd5b610a42838383610e7d565b505050565b610a5881610a536108ab565b611096565b50565b5f610a66838361065e565b610b3b57600160055f8581526020019081526020015f205f015f8473ffffffffffffffffffffffffffffffffffffffff1673ffffffffffffffffffffffffffffffffffffffff1681526020019081526020015f205f6101000a81548160ff021916908315150217905550610ad86108ab565b73ffffffffffffffffffffffffffffffffffffffff168273ffffffffffffffffffffffffffffffffffffffff16847f2f8788117e7eff1d82e926ec794901d17c78024a50270940304540a733656f0d60405160405180910390a460019050610b3f565b5f90505b92915050565b5f610b50838361065e565b15610c25575f60055f8581526020019081526020015f205f015f8473ffffffffffffffffffffffffffffffffffffffff1673ffffffffffffffffffffffffffffffffffffffff1681526020019081526020015f205f6101000a81548160ff021916908315150217905550610bc26108ab565b73ffffffffffffffffffffffffffffffffffffffff168273ffffffffffffffffffffffffffffffffffffffff16847ff6391f5c32d9c69d2a47ea670b442974b53935d1edc7fd64eb21e047a839171b60405160405180910390a460019050610c29565b5f90505b92915050565b5f73ffffffffffffffffffffffffffffffffffffffff168273ffffffffffffffffffffffffffffffffffffffff1603610c9f575f6040517fec442f05000000000000000000000000000000000000000000000000000000008152600401610c96919061158d565b60405180910390fd5b610caa5f8383610e7d565b5050565b5f73ffffffffffffffffffffffffffffffffffffffff168473ffffffffffffffffffffffffffffffffffffffff1603610d1e575f6040517fe602df05000000000000000000000000000000000000000000000000000000008152600401610d15919061158d565b60405180910390fd5b5f73ffffffffffffffffffffffffffffffffffffffff168373ffffffffffffffffffffffffffffffffffffffff1603610d8e575f6040517f94280d62000000000000000000000000000000000000000000000000000000008152600401610d85919061158d565b60405180910390fd5b8160015f8673ffffffffffffffffffffffffffffffffffffffff1673ffffffffffffffffffffffffffffffffffffffff1681526020019081526020015f205f8573ffffffffffffffffffffffffffffffffffffffff1673ffffffffffffffffffffffffffffffffffffffff1681526020019081526020015f20819055508015610e77578273ffffffffffffffffffffffffffffffffffffffff168473ffffffffffffffffffffffffffffffffffffffff167f8c5be1e5ebec7d5bd14f71427d1e84f3dd0314c0f7b2291e5b200ac8c7c3b92584604051610e6e9190611322565b60405180910390a35b50505050565b5f73ffffffffffffffffffffffffffffffffffffffff168373ffffffffffffffffffffffffffffffffffffffff1603610ecd578060025f828254610ec191906115d3565b92505081905550610f9b565b5f805f8573ffffffffffffffffffffffffffffffffffffffff1673ffffffffffffffffffffffffffffffffffffffff1681526020019081526020015f2054905081811015610f56578381836040517fe450d38c000000000000000000000000000000000000000000000000000000008152600401610f4d93929190611558565b60405180910390fd5b8181035f808673ffffffffffffffffffffffffffffffffffffffff1673ffffffffffffffffffffffffffffffffffffffff1681526020019081526020015f2081905550505b5f73ffffffffffffffffffffffffffffffffffffffff168273ffffffffffffffffffffffffffffffffffffffff1603610fe2578060025f828254039250508190555061102c565b805f808473ffffffffffffffffffffffffffffffffffffffff1673ffffffffffffffffffffffffffffffffffffffff1681526020019081526020015f205f82825401925050819055505b8173ffffffffffffffffffffffffffffffffffffffff168373ffffffffffffffffffffffffffffffffffffffff167fddf252ad1be2c89b69c2b068fc378daa952ba7f163c4a11628f55a4df523b3ef836040516110899190611322565b60405180910390a3505050565b6110a0828261065e565b6110e35780826040517fe2517d3f0000000000000000000000000000000000000000000000000000000081526004016110da929190611606565b60405180910390fd5b5050565b5f80fd5b5f7fffffffff0000000000000000000000000000000000000000000000000000000082169050919050565b61111f816110eb565b8114611129575f80fd5b50565b5f8135905061113a81611116565b92915050565b5f60208284031215611155576111546110e7565b5b5f6111628482850161112c565b91505092915050565b5f8115159050919050565b61117f8161116b565b82525050565b5f6020820190506111985f830184611176565b92915050565b5f81519050919050565b5f82825260208201905092915050565b5f5b838110156111d55780820151818401526020810190506111ba565b5f8484015250505050565b5f601f19601f8301169050919050565b5f6111fa8261119e565b61120481856111a8565b93506112148185602086016111b8565b61121d816111e0565b840191505092915050565b5f6020820190508181035f83015261124081846111f0565b905092915050565b5f73ffffffffffffffffffffffffffffffffffffffff82169050919050565b5f61127182611248565b9050919050565b61128181611267565b811461128b575f80fd5b50565b5f8135905061129c81611278565b92915050565b5f819050919050565b6112b4816112a2565b81146112be575f80fd5b50565b5f813590506112cf816112ab565b92915050565b5f80604083850312156112eb576112ea6110e7565b5b5f6112f88582860161128e565b9250506020611309858286016112c1565b9150509250929050565b61131c816112a2565b82525050565b5f6020820190506113355f830184611313565b92915050565b5f805f60608486031215611352576113516110e7565b5b5f61135f8682870161128e565b93505060206113708682870161128e565b9250506040611381868287016112c1565b9150509250925092565b5f819050919050565b61139d8161138b565b81146113a7575f80fd5b50565b5f813590506113b881611394565b92915050565b5f602082840312156113d3576113d26110e7565b5b5f6113e0848285016113aa565b91505092915050565b6113f28161138b565b82525050565b5f60208201905061140b5f8301846113e9565b92915050565b5f8060408385031215611427576114266110e7565b5b5f611434858286016113aa565b92505060206114458582860161128e565b9150509250929050565b5f60ff82169050919050565b6114648161144f565b82525050565b5f60208201905061147d5f83018461145b565b92915050565b5f60208284031215611498576114976110e7565b5b5f6114a58482850161128e565b91505092915050565b5f80604083850312156114c4576114c36110e7565b5b5f6114d18582860161128e565b92505060206114e28582860161128e565b9150509250929050565b7f4e487b71000000000000000000000000000000000000000000000000000000005f52602260045260245ffd5b5f600282049050600182168061153057607f821691505b602082108103611543576115426114ec565b5b50919050565b61155281611267565b82525050565b5f60608201905061156b5f830186611549565b6115786020830185611313565b6115856040830184611313565b949350505050565b5f6020820190506115a05f830184611549565b92915050565b7f4e487b71000000000000000000000000000000000000000000000000000000005f52601160045260245ffd5b5f6115dd826112a2565b91506115e8836112a2565b9250828201905080821115611600576115ff6115a6565b5b92915050565b5f6040820190506116195f830185611549565b61162660208301846113e9565b939250505056fea2646970667358221220b59706b01973169fc42957bf26ab848f39458f9c9e82a529648651d608096b5e64736f6c63430008180033","linkReferences":{}},"methodIdentifiers":{"DEFAULT_ADMIN_ROLE()":"a217fddf","MINTER_ROLE()":"d5391393","allowance(address,address)":"dd62ed3e","approve(address,uint256)":"095ea7b3","balanceOf(address)":"70a08231","decimals()":"313ce567","getRoleAdmin(bytes32)":"248a9ca3","grantRole(bytes32,address)":"2f2ff15d","hasRole(bytes32,address)":"91d14854","mint(address,uint256)":"40c10f19","name()":"06fdde03","renounceRole(bytes32,address)":"36568abe","revokeRole(bytes32,address)":"d547741f","supportsInterface(bytes4)":"01ffc9a7","symbol()":"95d89b41","totalSupply()":"18160ddd","transfer(address,uint256)":"a9059cbb","transferFrom(address,address,uint256)":"23b872dd"},"id":9}