{"abi":[{"type":"constructor","inputs":[{"name":"name_","type":"string","internalType":"string"},{"name":"symbol_","type":"string","internalType":"string"},{"name":"baseUri_","type":"string","internalType":"string"}],"stateMutability":"nonpayable"},{"type":"function","name":"BURNER_ROLE","inputs":[],"outputs":[{"name":"","type":"bytes32","internalType":"bytes32"}],"stateMutability":"view"},{"type":"function","name":"DEFAULT_ADMIN_ROLE","inputs":[],"outputs":[{"name":"","type":"bytes32","internalType":"bytes32"}],"stateMutability":"view"},{"type":"function","name":"MINTER_ROLE","inputs":[],"outputs":[{"name":"","type":"bytes32","internalType":"bytes32"}],"stateMutability":"view"},{"type":"function","name":"approve","inputs":[{"name":"to","type":"address","internalType":"address"},{"name":"tokenId","type":"uint256","internalType":"uint256"}],"outputs":[],"stateMutability":"nonpayable"},{"type":"function","name":"balanceOf","inputs":[{"name":"owner","type":"address","internalType":"address"}],"outputs":[{"name":"","type":"uint256","internalType":"uint256"}],"stateMutability":"view"},{"type":"function","name":"burnAuthorized","inputs":[{"name":"owner","type":"address","internalType":"address"},{"name":"tokenId","type":"uint256","internalType":"uint256"}],"outputs":[],"stateMutability":"nonpayable"},{"type":"function","name":"getApproved","inputs":[{"name":"tokenId","type":"uint256","internalType":"uint256"}],"outputs":[{"name":"","type":"address","internalType":"address"}],"stateMutability":"view"},{"type":"function","name":"getRoleAdmin","inputs":[{"name":"role","type":"bytes32","internalType":"bytes32"}],"outputs":[{"name":"","type":"bytes32","internalType":"bytes32"}],"stateMutability":"view"},{"type":"function","name":"grantRole","inputs":[{"name":"role","type":"bytes32","internalType":"bytes32"},{"name":"account","type":"address","internalType":"address"}],"outputs":[],"stateMutability":"nonpayable"},{"type":"function","name":"hasRole","inputs":[{"name":"role","type":"bytes32","internalType":"bytes32"},{"name":"account","type":"address","internalType":"address"}],"outputs":[{"name":"","type":"bool","internalType":"bool"}],"stateMutability":"view"},{"type":"function","name":"isApprovedForAll","inputs":[{"name":"owner","type":"address","internalType":"address"},{"name":"operator","type":"address","internalType":"address"}],"outputs":[{"name":"","type":"bool","internalType":"bool"}],"stateMutability":"view"},{"type":"function","name":"itemKind","inputs":[{"name":"tokenId","type":"uint256","internalType":"uint256"}],"outputs":[{"name":"kind","type":"uint8","internalType":"enum ItemTypes.ItemKind"}],"stateMutability":"view"},{"type":"function","name":"mintItem","inputs":[{"name":"to","type":"address","internalType":"address"},{"name":"kind","type":"uint8","internalType":"enum ItemTypes.ItemKind"}],"outputs":[{"name":"tokenId","type":"uint256","internalType":"uint256"}],"stateMutability":"nonpayable"},{"type":"function","name":"name","inputs":[],"outputs":[{"name":"","type":"string","internalType":"string"}],"stateMutability":"view"},{"type":"function","name":"ownerOf","inputs":[{"name":"tokenId","type":"uint256","internalType":"uint256"}],"outputs":[{"name":"","type":"address","internalType":"address"}],"stateMutability":"view"},{"type":"function","name":"renounceRole","inputs":[{"name":"role","type":"bytes32","internalType":"bytes32"},{"name":"callerConfirmation","type":"address","internalType":"address"}],"outputs":[],"stateMutability":"nonpayable"},{"type":"function","name":"revokeRole","inputs":[{"name":"role","type":"bytes32","internalType":"bytes32"},{"name":"account","type":"address","internalType":"address"}],"outputs":[],"stateMutability":"nonpayable"},{"type":"function","name":"safeTransferFrom","inputs":[{"name":"from","type":"address","internalType":"address"},{"name":"to","type":"address","internalType":"address"},{"name":"tokenId","type":"uint256","internalType":"uint256"}],"outputs":[],"stateMutability":"nonpayable"},{"type":"function","name":"safeTransferFrom","inputs":[{"name":"from","type":"address","internalType":"address"},{"name":"to","type":"address","internalType":"address"},{"name":"tokenId","type":"uint256","internalType":"uint256"},{"name":"data","type":"bytes","internalType":"bytes"}],"outputs":[],"stateMutability":"nonpayable"},{"type":"function","name":"setApprovalForAll","inputs":[{"name":"operator","type":"address","internalType":"address"},{"name":"approved","type":"bool","internalType":"bool"}],"outputs":[],"stateMutability":"nonpayable"},{"type":"function","name":"setBaseURI","inputs":[{"name":"newBase","type":"string","internalType":"string"}],"outputs":[],"stateMutability":"nonpayable"},{"type":"function","name":"supportsInterface","inputs":[{"name":"interfaceId","type":"bytes4","internalType":"bytes4"}],"outputs":[{"name":"","type":"bool","internalType":"bool"}],"stateMutability":"view"},{"type":"function","name":"symbol","inputs":[],"outputs":[{"name":"","type":"string","internalType":"string"}],"stateMutability":"view"},{"type":"function","name":"tokenURI","inputs":[{"name":"tokenId","type":"uint256","internalType":"uint256"}],"outputs":[{"name":"","type":"string","internalType":"string"}],"stateMutability":"view"},{"type":"function","name":"transferFrom","inputs":[{"name":"from","type":"address","internalType":"address"},{"name":"to","type":"address","internalType":"address"},{"name":"tokenId","type":"uint256","internalType":"uint256"}],"outputs":[],"stateMutability":"nonpayable"},{"type":"event","name":"Approval","inputs":[{"name":"owner","type":"address","indexed":true,"internalType":"address"},{"name":"approved","type":"address","indexed":true,"internalType":"address"},{"name":"tokenId","type":"uint256","indexed":true,"internalType":"uint256"}],"anonymous":false},{"type":"event","name":"ApprovalForAll","inputs":[{"name":"owner","type":"address","indexed":true,"internalType":"address"},{"name":"operator","type":"address","indexed":true,"internalType":"address"},{"name":"approved","type":"bool","indexed":false,"internalType":"bool"}],"anonymous":false},{"type":"event","name":"RoleAdminChanged","inputs":[{"name":"role","type":"bytes32","indexed":true,"internalType":"bytes32"},{"name":"previousAdminRole","type":"bytes32","indexed":true,"internalType":"bytes32"},{"name":"newAdminRole","type":"bytes32","indexed":true,"internalType":"bytes32"}],"anonymous":false},{"type":"event","name":"RoleGranted","inputs":[{"name":"role","type":"bytes32","indexed":true,"internalType":"bytes32"},{"name":"account","type":"address","indexed":true,"internalType":"address"},{"name":"sender","type":"address","indexed":true,"internalType":"address"}],"anonymous":false},{"type":"event","name":"RoleRevoked","inputs":[{"name":"role","type":"bytes32","indexed":true,"internalType":"bytes32"},{"name":"account","type":"address","indexed":true,"internalType":"address"},{"name":"sender","type":"address","indexed":true,"internalType":"address"}],"anonymous":false},{"type":"event","name":"Transfer","inputs":[{"name":"from","type":"address","indexed":true,"internalType":"address"},{"name":"to","type":"address","indexed":true,"internalType":"address"},{"name":"tokenId","type":"uint256","indexed":true,"internalType":"uint256"}],"anonymous":false},{"type":"error","name":"AccessControlBadConfirmation","inputs":[]},{"type":"error","name":"AccessControlUnauthorizedAccount","inputs":[{"name":"account","type":"address","internalType":"address"},{"name":"neededRole","type":"bytes32","internalType":"bytes32"}]},{"type":"error","name":"ERC721IncorrectOwner","inputs":[{"name":"sender","type":"address","internalType":"address"},{"name":"tokenId","type":"uint256","internalType":"uint256"},{"name":"owner","type":"address","internalType":"address"}]},{"type":"error","name":"ERC721InsufficientApproval","inputs":[{"name":"operator","type":"address","internalType":"address"},{"name":"tokenId","type":"uint256","internalType":"uint256"}]},{"type":"error","name":"ERC721InvalidApprover","inputs":[{"name":"approver","type":"address","internalType":"address"}]},{"type":"error","name":"ERC721InvalidOperator","inputs":[{"name":"operator","type":"address","internalType":"address"}]},{"type":"error","name":"ERC721InvalidOwner","inputs":[{"name":"owner","type":"address","internalType":"address"}]},{"type":"error","name":"ERC721InvalidReceiver","inputs":[{"name":"receiver","type":"address","internalType":"address"}]},{"type":"error","name":"ERC721InvalidSender","inputs":[{"name":"sender","type":"address","internalType":"address"}]},{"type":"error","name":"ERC721NonexistentToken","inputs":[{"name":"tokenId","type":"uint256","internalType":"uint256"}]},{"type":"error","name":"NotTokenOwner","inputs":[{"name":"expected","type":"address","internalType":"address"},{"name":"actual","type":"address","internalType":"address"}]},{"type":"error","name":"UnknownTokenId","inputs":[{"name":"tokenId","type":"uint256","internalType":"uint256"}]}],"bytecode":{"object":"0x608060405234801562000010575f80fd5b506040516200343d3803806200343d833981810160405281019062000036919062000381565b8282815f90816200004891906200066e565b5080600190816200005a91906200066e565b505050620000715f801b336200009560201b60201c565b5080600890816200008391906200066e565b50600160078190555050505062000752565b5f620000a883836200019160201b60201c565b6200018757600160065f8581526020019081526020015f205f015f8473ffffffffffffffffffffffffffffffffffffffff1673ffffffffffffffffffffffffffffffffffffffff1681526020019081526020015f205f6101000a81548160ff02191690831515021790555062000123620001f560201b60201c565b73ffffffffffffffffffffffffffffffffffffffff168273ffffffffffffffffffffffffffffffffffffffff16847f2f8788117e7eff1d82e926ec794901d17c78024a50270940304540a733656f0d60405160405180910390a4600190506200018b565b5f90505b92915050565b5f60065f8481526020019081526020015f205f015f8373ffffffffffffffffffffffffffffffffffffffff1673ffffffffffffffffffffffffffffffffffffffff1681526020019081526020015f205f9054906101000a900460ff16905092915050565b5f33905090565b5f604051905090565b5f80fd5b5f80fd5b5f80fd5b5f80fd5b5f601f19601f8301169050919050565b7f4e487b71000000000000000000000000000000000000000000000000000000005f52604160045260245ffd5b6200025d8262000215565b810181811067ffffffffffffffff821117156200027f576200027e62000225565b5b80604052505050565b5f62000293620001fc565b9050620002a1828262000252565b919050565b5f67ffffffffffffffff821115620002c357620002c262000225565b5b620002ce8262000215565b9050602081019050919050565b5f5b83811015620002fa578082015181840152602081019050620002dd565b5f8484015250505050565b5f6200031b6200031584620002a6565b62000288565b9050828152602081018484840111156200033a576200033962000211565b5b62000347848285620002db565b509392505050565b5f82601f8301126200036657620003656200020d565b5b81516200037884826020860162000305565b91505092915050565b5f805f606084860312156200039b576200039a62000205565b5b5f84015167ffffffffffffffff811115620003bb57620003ba62000209565b5b620003c9868287016200034f565b935050602084015167ffffffffffffffff811115620003ed57620003ec62000209565b5b620003fb868287016200034f565b925050604084015167ffffffffffffffff8111156200041f576200041e62000209565b5b6200042d868287016200034f565b9150509250925092565b5f81519050919050565b7f4e487b71000000000000000000000000000000000000000000000000000000005f52602260045260245ffd5b5f60028204905060018216806200048657607f821691505b6020821081036200049c576200049b62000441565b5b50919050565b5f819050815f5260205f209050919050565b5f6020601f8301049050919050565b5f82821b905092915050565b5f60088302620005007fffffffffffffffffffffffffffffffffffffffffffffffffffffffffffffffff82620004c3565b6200050c8683620004c3565b95508019841693508086168417925050509392505050565b5f819050919050565b5f819050919050565b5f62000556620005506200054a8462000524565b6200052d565b62000524565b9050919050565b5f819050919050565b620005718362000536565b6200058962000580826200055d565b848454620004cf565b825550505050565b5f90565b6200059f62000591565b620005ac81848462000566565b505050565b5b81811015620005d357620005c75f8262000595565b600181019050620005b2565b5050565b601f8211156200062257620005ec81620004a2565b620005f784620004b4565b8101602085101562000607578190505b6200061f6200061685620004b4565b830182620005b1565b50505b505050565b5f82821c905092915050565b5f620006445f198460080262000627565b1980831691505092915050565b5f6200065e838362000633565b9150826002028217905092915050565b620006798262000437565b67ffffffffffffffff81111562000695576200069462000225565b5b620006a182546200046e565b620006ae828285620005d7565b5f60209050601f831160018114620006e4575f8415620006cf578287015190505b620006db858262000651565b8655506200074a565b601f198416620006f486620004a2565b5f5b828110156200071d57848901518255600182019150602085019450602081019050620006f6565b868310156200073d578489015162000739601f89168262000633565b8355505b6001600288020188555050505b505050505050565b612cdd80620007605f395ff3fe608060405234801561000f575f80fd5b5060043610610171575f3560e01c806370a08231116100dc578063a22cb46511610095578063c87b56dd1161006f578063c87b56dd14610469578063d539139314610499578063d547741f146104b7578063e985e9c5146104d357610171565b8063a22cb46514610401578063b88d4fde1461041d578063bd9902e21461043957610171565b806370a0823114610319578063748fe5361461034957806391d148541461037957806395d89b41146103a95780639f60e9e3146103c7578063a217fddf146103e357610171565b8063282c51f31161012e578063282c51f31461025b5780632f2ff15d1461027957806336568abe1461029557806342842e0e146102b157806355f804b3146102cd5780636352211e146102e957610171565b806301ffc9a71461017557806306fdde03146101a5578063081812fc146101c3578063095ea7b3146101f357806323b872dd1461020f578063248a9ca31461022b575b5f80fd5b61018f600480360381019061018a9190611fdf565b610503565b60405161019c9190612024565b60405180910390f35b6101ad610524565b6040516101ba91906120c7565b60405180910390f35b6101dd60048036038101906101d8919061211a565b6105b3565b6040516101ea9190612184565b60405180910390f35b61020d600480360381019061020891906121c7565b6105ce565b005b61022960048036038101906102249190612205565b6105e4565b005b61024560048036038101906102409190612288565b6106e3565b60405161025291906122c2565b60405180910390f35b610263610700565b60405161027091906122c2565b60405180910390f35b610293600480360381019061028e91906122db565b610724565b005b6102af60048036038101906102aa91906122db565b610746565b005b6102cb60048036038101906102c69190612205565b6107c1565b005b6102e760048036038101906102e2919061237a565b6107e0565b005b61030360048036038101906102fe919061211a565b610803565b6040516103109190612184565b60405180910390f35b610333600480360381019061032e91906123c5565b610814565b60405161034091906123ff565b60405180910390f35b610363600480360381019061035e919061211a565b6108ca565b604051610370919061248b565b60405180910390f35b610393600480360381019061038e91906122db565b610968565b6040516103a09190612024565b60405180910390f35b6103b16109cc565b6040516103be91906120c7565b60405180910390f35b6103e160048036038101906103dc91906121c7565b610a5c565b005b6103eb610ba3565b6040516103f891906122c2565b60405180910390f35b61041b600480360381019061041691906124ce565b610ba9565b005b61043760048036038101906104329190612634565b610bbf565b005b610453600480360381019061044e91906126d7565b610be4565b60405161046091906123ff565b60405180910390f35b610483600480360381019061047e919061211a565b610c70565b60405161049091906120c7565b60405180910390f35b6104a1610cd6565b6040516104ae91906122c2565b60405180910390f35b6104d160048036038101906104cc91906122db565b610cfa565b005b6104ed60048036038101906104e89190612715565b610d1c565b6040516104fa9190612024565b60405180910390f35b5f61050d82610daa565b8061051d575061051c82610e8b565b5b9050919050565b60605f805461053290612780565b80601f016020809104026020016040519081016040528092919081815260200182805461055e90612780565b80156105a95780601f10610580576101008083540402835291602001916105a9565b820191905f5260205f20905b81548152906001019060200180831161058c57829003601f168201915b5050505050905090565b5f6105bd82610f04565b506105c782610f8a565b9050919050565b6105e082826105db610fc3565b610fca565b5050565b5f73ffffffffffffffffffffffffffffffffffffffff168273ffffffffffffffffffffffffffffffffffffffff1603610654575f6040517f64a0ae9200000000000000000000000000000000000000000000000000000000815260040161064b9190612184565b60405180910390fd5b5f6106678383610662610fc3565b610fdc565b90508373ffffffffffffffffffffffffffffffffffffffff168173ffffffffffffffffffffffffffffffffffffffff16146106dd578382826040517f64283d7b0000000000000000000000000000000000000000000000000000000081526004016106d4939291906127b0565b60405180910390fd5b50505050565b5f60065f8381526020019081526020015f20600101549050919050565b7f3c11d16cbaffd01df69ce1c404f6340ee057498f5f00246190ea54220576a84881565b61072d826106e3565b610736816111e7565b61074083836111fb565b50505050565b61074e610fc3565b73ffffffffffffffffffffffffffffffffffffffff168173ffffffffffffffffffffffffffffffffffffffff16146107b2576040517f6697b23200000000000000000000000000000000000000000000000000000000815260040160405180910390fd5b6107bc82826112e5565b505050565b6107db83838360405180602001604052805f815250610bbf565b505050565b5f801b6107ec816111e7565b8282600891826107fd92919061298c565b50505050565b5f61080d82610f04565b9050919050565b5f8073ffffffffffffffffffffffffffffffffffffffff168273ffffffffffffffffffffffffffffffffffffffff1603610885575f6040517f89c62b6400000000000000000000000000000000000000000000000000000000815260040161087c9190612184565b60405180910390fd5b60035f8373ffffffffffffffffffffffffffffffffffffffff1673ffffffffffffffffffffffffffffffffffffffff1681526020019081526020015f20549050919050565b5f8073ffffffffffffffffffffffffffffffffffffffff166108eb836113cf565b73ffffffffffffffffffffffffffffffffffffffff160361094357816040517f6bc099b400000000000000000000000000000000000000000000000000000000815260040161093a91906123ff565b60405180910390fd5b60095f8381526020019081526020015f205f9054906101000a900460ff169050919050565b5f60065f8481526020019081526020015f205f015f8373ffffffffffffffffffffffffffffffffffffffff1673ffffffffffffffffffffffffffffffffffffffff1681526020019081526020015f205f9054906101000a900460ff16905092915050565b6060600180546109db90612780565b80601f0160208091040260200160405190810160405280929190818152602001828054610a0790612780565b8015610a525780601f10610a2957610100808354040283529160200191610a52565b820191905f5260205f20905b815481529060010190602001808311610a3557829003601f168201915b5050505050905090565b7f3c11d16cbaffd01df69ce1c404f6340ee057498f5f00246190ea54220576a848610a86816111e7565b5f610a90836113cf565b90505f73ffffffffffffffffffffffffffffffffffffffff168173ffffffffffffffffffffffffffffffffffffffff1603610b0257826040517f6bc099b4000000000000000000000000000000000000000000000000000000008152600401610af991906123ff565b60405180910390fd5b8373ffffffffffffffffffffffffffffffffffffffff168173ffffffffffffffffffffffffffffffffffffffff1614610b745783816040517f3a7a997c000000000000000000000000000000000000000000000000000000008152600401610b6b929190612a59565b60405180910390fd5b610b7d83611408565b60095f8481526020019081526020015f205f6101000a81549060ff021916905550505050565b5f801b81565b610bbb610bb4610fc3565b838361148a565b5050565b610bca8484846105e4565b610bde610bd5610fc3565b858585856115f3565b50505050565b5f7f9f2df0fed2c77648de5860a4cc508cd0818c85b8b8a1ab4ceeef8d981c8956a6610c0f816111e7565b60075f815480929190610c2190612aad565b919050559150610c31848361179f565b8260095f8481526020019081526020015f205f6101000a81548160ff02191690836004811115610c6457610c63612418565b5b02179055505092915050565b6060610c7b82610f04565b505f610c856117bc565b90505f815111610ca35760405180602001604052805f815250610cce565b80610cad8461184c565b604051602001610cbe929190612b2e565b6040516020818303038152906040525b915050919050565b7f9f2df0fed2c77648de5860a4cc508cd0818c85b8b8a1ab4ceeef8d981c8956a681565b610d03826106e3565b610d0c816111e7565b610d1683836112e5565b50505050565b5f60055f8473ffffffffffffffffffffffffffffffffffffffff1673ffffffffffffffffffffffffffffffffffffffff1681526020019081526020015f205f8373ffffffffffffffffffffffffffffffffffffffff1673ffffffffffffffffffffffffffffffffffffffff1681526020019081526020015f205f9054906101000a900460ff16905092915050565b5f7f80ac58cd000000000000000000000000000000000000000000000000000000007bffffffffffffffffffffffffffffffffffffffffffffffffffffffff1916827bffffffffffffffffffffffffffffffffffffffffffffffffffffffff19161480610e7457507f5b5e139f000000000000000000000000000000000000000000000000000000007bffffffffffffffffffffffffffffffffffffffffffffffffffffffff1916827bffffffffffffffffffffffffffffffffffffffffffffffffffffffff1916145b80610e845750610e8382611916565b5b9050919050565b5f7f7965db0b000000000000000000000000000000000000000000000000000000007bffffffffffffffffffffffffffffffffffffffffffffffffffffffff1916827bffffffffffffffffffffffffffffffffffffffffffffffffffffffff19161480610efd5750610efc82610daa565b5b9050919050565b5f80610f0f836113cf565b90505f73ffffffffffffffffffffffffffffffffffffffff168173ffffffffffffffffffffffffffffffffffffffff1603610f8157826040517f7e273289000000000000000000000000000000000000000000000000000000008152600401610f7891906123ff565b60405180910390fd5b80915050919050565b5f60045f8381526020019081526020015f205f9054906101000a900473ffffffffffffffffffffffffffffffffffffffff169050919050565b5f33905090565b610fd7838383600161197f565b505050565b5f80610fe7846113cf565b90505f73ffffffffffffffffffffffffffffffffffffffff168373ffffffffffffffffffffffffffffffffffffffff161461102857611027818486611b3e565b5b5f73ffffffffffffffffffffffffffffffffffffffff168173ffffffffffffffffffffffffffffffffffffffff16146110b3576110675f855f8061197f565b600160035f8373ffffffffffffffffffffffffffffffffffffffff1673ffffffffffffffffffffffffffffffffffffffff1681526020019081526020015f205f82825403925050819055505b5f73ffffffffffffffffffffffffffffffffffffffff168573ffffffffffffffffffffffffffffffffffffffff161461113257600160035f8773ffffffffffffffffffffffffffffffffffffffff1673ffffffffffffffffffffffffffffffffffffffff1681526020019081526020015f205f82825401925050819055505b8460025f8681526020019081526020015f205f6101000a81548173ffffffffffffffffffffffffffffffffffffffff021916908373ffffffffffffffffffffffffffffffffffffffff160217905550838573ffffffffffffffffffffffffffffffffffffffff168273ffffffffffffffffffffffffffffffffffffffff167fddf252ad1be2c89b69c2b068fc378daa952ba7f163c4a11628f55a4df523b3ef60405160405180910390a4809150509392505050565b6111f8816111f3610fc3565b611c01565b50565b5f6112068383610968565b6112db57600160065f8581526020019081526020015f205f015f8473ffffffffffffffffffffffffffffffffffffffff1673ffffffffffffffffffffffffffffffffffffffff1681526020019081526020015f205f6101000a81548160ff021916908315150217905550611278610fc3565b73ffffffffffffffffffffffffffffffffffffffff168273ffffffffffffffffffffffffffffffffffffffff16847f2f8788117e7eff1d82e926ec794901d17c78024a50270940304540a733656f0d60405160405180910390a4600190506112df565b5f90505b92915050565b5f6112f08383610968565b156113c5575f60065f8581526020019081526020015f205f015f8473ffffffffffffffffffffffffffffffffffffffff1673ffffffffffffffffffffffffffffffffffffffff1681526020019081526020015f205f6101000a81548160ff021916908315150217905550611362610fc3565b73ffffffffffffffffffffffffffffffffffffffff168273ffffffffffffffffffffffffffffffffffffffff16847ff6391f5c32d9c69d2a47ea670b442974b53935d1edc7fd64eb21e047a839171b60405160405180910390a4600190506113c9565b5f90505b92915050565b5f60025f8381526020019081526020015f205f9054906101000a900473ffffffffffffffffffffffffffffffffffffffff169050919050565b5f6114145f835f610fdc565b90505f73ffffffffffffffffffffffffffffffffffffffff168173ffffffffffffffffffffffffffffffffffffffff160361148657816040517f7e27328900000000000000000000000000000000000000000000000000000000815260040161147d91906123ff565b60405180910390fd5b5050565b5f73ffffffffffffffffffffffffffffffffffffffff168273ffffffffffffffffffffffffffffffffffffffff16036114fa57816040517f5b08ba180000000000000000000000000000000000000000000000000000000081526004016114f19190612184565b60405180910390fd5b8060055f8573ffffffffffffffffffffffffffffffffffffffff1673ffffffffffffffffffffffffffffffffffffffff1681526020019081526020015f205f8473ffffffffffffffffffffffffffffffffffffffff1673ffffffffffffffffffffffffffffffffffffffff1681526020019081526020015f205f6101000a81548160ff0219169083151502179055508173ffffffffffffffffffffffffffffffffffffffff168373ffffffffffffffffffffffffffffffffffffffff167f17307eab39ab6107e8899845ad3d59bd9653f200f220920489ca2b5937696c31836040516115e69190612024565b60405180910390a3505050565b5f8373ffffffffffffffffffffffffffffffffffffffff163b1115611798578273ffffffffffffffffffffffffffffffffffffffff1663150b7a02868685856040518563ffffffff1660e01b81526004016116519493929190612ba3565b6020604051808303815f875af192505050801561168c57506040513d601f19601f820116820180604052508101906116899190612c01565b60015b61170d573d805f81146116ba576040519150601f19603f3d011682016040523d82523d5f602084013e6116bf565b606091505b505f81510361170557836040517f64a0ae920000000000000000000000000000000000000000000000000000000081526004016116fc9190612184565b60405180910390fd5b805160208201fd5b63150b7a0260e01b7bffffffffffffffffffffffffffffffffffffffffffffffffffffffff1916817bffffffffffffffffffffffffffffffffffffffffffffffffffffffff19161461179657836040517f64a0ae9200000000000000000000000000000000000000000000000000000000815260040161178d9190612184565b60405180910390fd5b505b5050505050565b6117b8828260405180602001604052805f815250611c52565b5050565b6060600880546117cb90612780565b80601f01602080910402602001604051908101604052809291908181526020018280546117f790612780565b80156118425780601f1061181957610100808354040283529160200191611842565b820191905f5260205f20905b81548152906001019060200180831161182557829003601f168201915b5050505050905090565b60605f600161185a84611c75565b0190505f8167ffffffffffffffff81111561187857611877612510565b5b6040519080825280601f01601f1916602001820160405280156118aa5781602001600182028036833780820191505090505b5090505f82602083010190505b60011561190b578080600190039150507f3031323334353637383961626364656600000000000000000000000000000000600a86061a8153600a8581611900576118ff612c2c565b5b0494505f85036118b7575b819350505050919050565b5f7f01ffc9a7000000000000000000000000000000000000000000000000000000007bffffffffffffffffffffffffffffffffffffffffffffffffffffffff1916827bffffffffffffffffffffffffffffffffffffffffffffffffffffffff1916149050919050565b80806119b757505f73ffffffffffffffffffffffffffffffffffffffff168273ffffffffffffffffffffffffffffffffffffffff1614155b15611ae9575f6119c684610f04565b90505f73ffffffffffffffffffffffffffffffffffffffff168373ffffffffffffffffffffffffffffffffffffffff1614158015611a3057508273ffffffffffffffffffffffffffffffffffffffff168173ffffffffffffffffffffffffffffffffffffffff1614155b8015611a435750611a418184610d1c565b155b15611a8557826040517fa9fbf51f000000000000000000000000000000000000000000000000000000008152600401611a7c9190612184565b60405180910390fd5b8115611ae757838573ffffffffffffffffffffffffffffffffffffffff168273ffffffffffffffffffffffffffffffffffffffff167f8c5be1e5ebec7d5bd14f71427d1e84f3dd0314c0f7b2291e5b200ac8c7c3b92560405160405180910390a45b505b8360045f8581526020019081526020015f205f6101000a81548173ffffffffffffffffffffffffffffffffffffffff021916908373ffffffffffffffffffffffffffffffffffffffff16021790555050505050565b611b49838383611dc6565b611bfc575f73ffffffffffffffffffffffffffffffffffffffff168373ffffffffffffffffffffffffffffffffffffffff1603611bbd57806040517f7e273289000000000000000000000000000000000000000000000000000000008152600401611bb491906123ff565b60405180910390fd5b81816040517f177e802f000000000000000000000000000000000000000000000000000000008152600401611bf3929190612c59565b60405180910390fd5b505050565b611c0b8282610968565b611c4e5780826040517fe2517d3f000000000000000000000000000000000000000000000000000000008152600401611c45929190612c80565b60405180910390fd5b5050565b611c5c8383611e86565b611c70611c67610fc3565b5f8585856115f3565b505050565b5f805f90507a184f03e93ff9f4daa797ed6e38ed64bf6a1f0100000000000000008310611cd1577a184f03e93ff9f4daa797ed6e38ed64bf6a1f0100000000000000008381611cc757611cc6612c2c565b5b0492506040810190505b6d04ee2d6d415b85acef81000000008310611d0e576d04ee2d6d415b85acef81000000008381611d0457611d03612c2c565b5b0492506020810190505b662386f26fc100008310611d3d57662386f26fc100008381611d3357611d32612c2c565b5b0492506010810190505b6305f5e1008310611d66576305f5e1008381611d5c57611d5b612c2c565b5b0492506008810190505b6127108310611d8b576127108381611d8157611d80612c2c565b5b0492506004810190505b60648310611dae5760648381611da457611da3612c2c565b5b0492506002810190505b600a8310611dbd576001810190505b80915050919050565b5f8073ffffffffffffffffffffffffffffffffffffffff168373ffffffffffffffffffffffffffffffffffffffff1614158015611e7d57508273ffffffffffffffffffffffffffffffffffffffff168473ffffffffffffffffffffffffffffffffffffffff161480611e3e5750611e3d8484610d1c565b5b80611e7c57508273ffffffffffffffffffffffffffffffffffffffff16611e6483610f8a565b73ffffffffffffffffffffffffffffffffffffffff16145b5b90509392505050565b5f73ffffffffffffffffffffffffffffffffffffffff168273ffffffffffffffffffffffffffffffffffffffff1603611ef6575f6040517f64a0ae92000000000000000000000000000000000000000000000000000000008152600401611eed9190612184565b60405180910390fd5b5f611f0283835f610fdc565b90505f73ffffffffffffffffffffffffffffffffffffffff168173ffffffffffffffffffffffffffffffffffffffff1614611f74575f6040517f73c6ac6e000000000000000000000000000000000000000000000000000000008152600401611f6b9190612184565b60405180910390fd5b505050565b5f604051905090565b5f80fd5b5f80fd5b5f7fffffffff0000000000000000000000000000000000000000000000000000000082169050919050565b611fbe81611f8a565b8114611fc8575f80fd5b50565b5f81359050611fd981611fb5565b92915050565b5f60208284031215611ff457611ff3611f82565b5b5f61200184828501611fcb565b91505092915050565b5f8115159050919050565b61201e8161200a565b82525050565b5f6020820190506120375f830184612015565b92915050565b5f81519050919050565b5f82825260208201905092915050565b5f5b83811015612074578082015181840152602081019050612059565b5f8484015250505050565b5f601f19601f8301169050919050565b5f6120998261203d565b6120a38185612047565b93506120b3818560208601612057565b6120bc8161207f565b840191505092915050565b5f6020820190508181035f8301526120df818461208f565b905092915050565b5f819050919050565b6120f9816120e7565b8114612103575f80fd5b50565b5f81359050612114816120f0565b92915050565b5f6020828403121561212f5761212e611f82565b5b5f61213c84828501612106565b91505092915050565b5f73ffffffffffffffffffffffffffffffffffffffff82169050919050565b5f61216e82612145565b9050919050565b61217e81612164565b82525050565b5f6020820190506121975f830184612175565b92915050565b6121a681612164565b81146121b0575f80fd5b50565b5f813590506121c18161219d565b92915050565b5f80604083850312156121dd576121dc611f82565b5b5f6121ea858286016121b3565b92505060206121fb85828601612106565b9150509250929050565b5f805f6060848603121561221c5761221b611f82565b5b5f612229868287016121b3565b935050602061223a868287016121b3565b925050604061224b86828701612106565b9150509250925092565b5f819050919050565b61226781612255565b8114612271575f80fd5b50565b5f813590506122828161225e565b92915050565b5f6020828403121561229d5761229c611f82565b5b5f6122aa84828501612274565b91505092915050565b6122bc81612255565b82525050565b5f6020820190506122d55f8301846122b3565b92915050565b5f80604083850312156122f1576122f0611f82565b5b5f6122fe85828601612274565b925050602061230f858286016121b3565b9150509250929050565b5f80fd5b5f80fd5b5f80fd5b5f8083601f84011261233a57612339612319565b5b8235905067ffffffffffffffff8111156123575761235661231d565b5b60208301915083600182028301111561237357612372612321565b5b9250929050565b5f80602083850312156123905761238f611f82565b5b5f83013567ffffffffffffffff8111156123ad576123ac611f86565b5b6123b985828601612325565b92509250509250929050565b5f602082840312156123da576123d9611f82565b5b5f6123e7848285016121b3565b91505092915050565b6123f9816120e7565b82525050565b5f6020820190506124125f8301846123f0565b92915050565b7f4e487b71000000000000000000000000000000000000000000000000000000005f52602160045260245ffd5b6005811061245657612455612418565b5b50565b5f81905061246682612445565b919050565b5f61247582612459565b9050919050565b6124858161246b565b82525050565b5f60208201905061249e5f83018461247c565b92915050565b6124ad8161200a565b81146124b7575f80fd5b50565b5f813590506124c8816124a4565b92915050565b5f80604083850312156124e4576124e3611f82565b5b5f6124f1858286016121b3565b9250506020612502858286016124ba565b9150509250929050565b5f80fd5b7f4e487b71000000000000000000000000000000000000000000000000000000005f52604160045260245ffd5b6125468261207f565b810181811067ffffffffffffffff8211171561256557612564612510565b5b80604052505050565b5f612577611f79565b9050612583828261253d565b919050565b5f67ffffffffffffffff8211156125a2576125a1612510565b5b6125ab8261207f565b9050602081019050919050565b828183375f83830152505050565b5f6125d86125d384612588565b61256e565b9050828152602081018484840111156125f4576125f361250c565b5b6125ff8482856125b8565b509392505050565b5f82601f83011261261b5761261a612319565b5b813561262b8482602086016125c6565b91505092915050565b5f805f806080858703121561264c5761264b611f82565b5b5f612659878288016121b3565b945050602061266a878288016121b3565b935050604061267b87828801612106565b925050606085013567ffffffffffffffff81111561269c5761269b611f86565b5b6126a887828801612607565b91505092959194509250565b600581106126c0575f80fd5b50565b5f813590506126d1816126b4565b92915050565b5f80604083850312156126ed576126ec611f82565b5b5f6126fa858286016121b3565b925050602061270b858286016126c3565b9150509250929050565b5f806040838503121561272b5761272a611f82565b5b5f612738858286016121b3565b9250506020612749858286016121b3565b9150509250929050565b7f4e487b71000000000000000000000000000000000000000000000000000000005f52602260045260245ffd5b5f600282049050600182168061279757607f821691505b6020821081036127aa576127a9612753565b5b50919050565b5f6060820190506127c35f830186612175565b6127d060208301856123f0565b6127dd6040830184612175565b949350505050565b5f82905092915050565b5f819050815f5260205f209050919050565b5f6020601f8301049050919050565b5f82821b905092915050565b5f6008830261284b7fffffffffffffffffffffffffffffffffffffffffffffffffffffffffffffffff82612810565b6128558683612810565b95508019841693508086168417925050509392505050565b5f819050919050565b5f61289061288b612886846120e7565b61286d565b6120e7565b9050919050565b5f819050919050565b6128a983612876565b6128bd6128b582612897565b84845461281c565b825550505050565b5f90565b6128d16128c5565b6128dc8184846128a0565b505050565b5b818110156128ff576128f45f826128c9565b6001810190506128e2565b5050565b601f82111561294457612915816127ef565b61291e84612801565b8101602085101561292d578190505b61294161293985612801565b8301826128e1565b50505b505050565b5f82821c905092915050565b5f6129645f1984600802612949565b1980831691505092915050565b5f61297c8383612955565b9150826002028217905092915050565b61299683836127e5565b67ffffffffffffffff8111156129af576129ae612510565b5b6129b98254612780565b6129c4828285612903565b5f601f8311600181146129f1575f84156129df578287013590505b6129e98582612971565b865550612a50565b601f1984166129ff866127ef565b5f5b82811015612a2657848901358255600182019150602085019450602081019050612a01565b86831015612a435784890135612a3f601f891682612955565b8355505b6001600288020188555050505b50505050505050565b5f604082019050612a6c5f830185612175565b612a796020830184612175565b9392505050565b7f4e487b71000000000000000000000000000000000000000000000000000000005f52601160045260245ffd5b5f612ab7826120e7565b91507fffffffffffffffffffffffffffffffffffffffffffffffffffffffffffffffff8203612ae957612ae8612a80565b5b600182019050919050565b5f81905092915050565b5f612b088261203d565b612b128185612af4565b9350612b22818560208601612057565b80840191505092915050565b5f612b398285612afe565b9150612b458284612afe565b91508190509392505050565b5f81519050919050565b5f82825260208201905092915050565b5f612b7582612b51565b612b7f8185612b5b565b9350612b8f818560208601612057565b612b988161207f565b840191505092915050565b5f608082019050612bb65f830187612175565b612bc36020830186612175565b612bd060408301856123f0565b8181036060830152612be28184612b6b565b905095945050505050565b5f81519050612bfb81611fb5565b92915050565b5f60208284031215612c1657612c15611f82565b5b5f612c2384828501612bed565b91505092915050565b7f4e487b71000000000000000000000000000000000000000000000000000000005f52601260045260245ffd5b5f604082019050612c6c5f830185612175565b612c7960208301846123f0565b9392505050565b5f604082019050612c935f830185612175565b612ca060208301846122b3565b939250505056fea2646970667358221220f2ffdb2db6d9a4df1588a18c8f24fda22f841e6385a8cd5bb70d96042e4f61c064736f6c63430008180033","linkReferences":{}},"methodIdentifiers":{"BURNER_ROLE()":"282c51f3","DEFAULT_ADMIN_ROLE()":"a217fddf","MINTER_ROLE()":"d5391393","approve(address,uint256)":"095ea7b3","balanceOf(address)":"70a08231","burnAuthorized(address,uint256)":"9f60e9e3","getApproved(uint256)":"081812fc","getRoleAdmin(bytes32)":"248a9ca3","grantRole(bytes32,address)":"2f2ff15d","hasRole(bytes32,address)":"91d14854","isApprovedForAll(address,address)":"e985e9c5","itemKind(uint256)":"748fe536","mintItem(address,uint8)":"bd9902e2","name()":"06fdde03","ownerOf(uint256)":"6352211e","renounceRole(bytes32,address)":"36568abe","revokeRole(bytes32,address)":"d547741f","safeTransferFrom(address,address,uint256)":"42842e0e","safeTransferFrom(address,address,uint256,bytes)":"b88d4fde","setApprovalForAll(address,bool)":"a22cb465","setBaseURI(string)":"55f804b3","supportsInterface(bytes4)":"01ffc9a7","symbol()":"95d89b41","tokenURI(uint256)":"c87b56dd","transferFrom(address,address,uint256)":"23b872dd"},"id":45}