{"abi":[{"type":"constructor","inputs":[{"name":"res","type":"address","internalType":"contract ResourceNFT1155"},{"name":"it","type":"address","internalType":"contract ItemNFT721"}],"stateMutability":"nonpayable"},{"type":"function","name":"DEFAULT_ADMIN_ROLE","inputs":[],"outputs":[{"name":"","type":"bytes32","internalType":"bytes32"}],"stateMutability":"view"},{"type":"function","name":"craft","inputs":[{"name":"kind","type":"uint8","internalType":"enum ItemTypes.ItemKind"}],"outputs":[{"name":"tokenId","type":"uint256","internalType":"uint256"}],"stateMutability":"nonpayable"},{"type":"function","name":"getRoleAdmin","inputs":[{"name":"role","type":"bytes32","internalType":"bytes32"}],"outputs":[{"name":"","type":"bytes32","internalType":"bytes32"}],"stateMutability":"view"},{"type":"function","name":"grantRole","inputs":[{"name":"role","type":"bytes32","internalType":"bytes32"},{"name":"account","type":"address","internalType":"address"}],"outputs":[],"stateMutability":"nonpayable"},{"type":"function","name":"hasRole","inputs":[{"name":"role","type":"bytes32","internalType":"bytes32"},{"name":"account","type":"address","internalType":"address"}],"outputs":[{"name":"","type":"bool","internalType":"bool"}],"stateMutability":"view"},{"type":"function","name":"items","inputs":[],"outputs":[{"name":"","type":"address","internalType":"contract ItemNFT721"}],"stateMutability":"view"},{"type":"function","name":"renounceRole","inputs":[{"name":"role","type":"bytes32","internalType":"bytes32"},{"name":"callerConfirmation","type":"address","internalType":"address"}],"outputs":[],"stateMutability":"nonpayable"},{"type":"function","name":"resources","inputs":[],"outputs":[{"name":"","type":"address","internalType":"contract ResourceNFT1155"}],"stateMutability":"view"},{"type":"function","name":"revokeRole","inputs":[{"name":"role","type":"bytes32","internalType":"bytes32"},{"name":"account","type":"address","internalType":"address"}],"outputs":[],"stateMutability":"nonpayable"},{"type":"function","name":"setRecipe","inputs":[{"name":"kind","type":"uint8","internalType":"enum ItemTypes.ItemKind"},{"name":"resourceIds","type":"uint8[]","internalType":"enum ItemTypes.ResourceId[]"},{"name":"amountsRequired","type":"uint256[]","internalType":"uint256[]"}],"outputs":[],"stateMutability":"nonpayable"},{"type":"function","name":"supportsInterface","inputs":[{"name":"interfaceId","type":"bytes4","internalType":"bytes4"}],"outputs":[{"name":"","type":"bool","internalType":"bool"}],"stateMutability":"view"},{"type":"event","name":"Crafted","inputs":[{"name":"player","type":"address","indexed":true,"internalType":"address"},{"name":"kind","type":"uint8","indexed":true,"internalType":"enum ItemTypes.ItemKind"},{"name":"tokenId","type":"uint256","indexed":false,"internalType":"uint256"}],"anonymous":false},{"type":"event","name":"RoleAdminChanged","inputs":[{"name":"role","type":"bytes32","indexed":true,"internalType":"bytes32"},{"name":"previousAdminRole","type":"bytes32","indexed":true,"internalType":"bytes32"},{"name":"newAdminRole","type":"bytes32","indexed":true,"internalType":"bytes32"}],"anonymous":false},{"type":"event","name":"RoleGranted","inputs":[{"name":"role","type":"bytes32","indexed":true,"internalType":"bytes32"},{"name":"account","type":"address","indexed":true,"internalType":"address"},{"name":"sender","type":"address","indexed":true,"internalType":"address"}],"anonymous":false},{"type":"event","name":"RoleRevoked","inputs":[{"name":"role","type":"bytes32","indexed":true,"internalType":"bytes32"},{"name":"account","type":"address","indexed":true,"internalType":"address"},{"name":"sender","type":"address","indexed":true,"internalType":"address"}],"anonymous":false},{"type":"event","name":"Searched","inputs":[{"name":"player","type":"address","indexed":true,"internalType":"address"},{"name":"resourceIds","type":"uint256[3]","indexed":false,"internalType":"uint256[3]"}],"anonymous":false},{"type":"error","name":"AccessControlBadConfirmation","inputs":[]},{"type":"error","name":"AccessControlUnauthorizedAccount","inputs":[{"name":"account","type":"address","internalType":"address"},{"name":"neededRole","type":"bytes32","internalType":"bytes32"}]},{"type":"error","name":"InsufficientResourceBalance","inputs":[{"name":"account","type":"address","internalType":"address"},{"name":"resourceId","type":"uint256","internalType":"uint256"},{"name":"required","type":"uint256","internalType":"uint256"},{"name":"available","type":"uint256","internalType":"uint256"}]},{"type":"error","name":"InvalidRecipeEmpty","inputs":[]},{"type":"error","name":"InvalidRecipeLengthMismatch","inputs":[]},{"type":"error","name":"RecipeNotSet","inputs":[{"name":"kind","type":"uint8","internalType":"enum ItemTypes.ItemKind"}]}],"bytecode":{"object":"0x60c060405234801562000010575f80fd5b5060405162002396380380620023968339818101604052810190620000369190620002da565b8173ffffffffffffffffffffffffffffffffffffffff1660808173ffffffffffffffffffffffffffffffffffffffff16815250508073ffffffffffffffffffffffffffffffffffffffff1660a08173ffffffffffffffffffffffffffffffffffffffff1681525050620000b25f801b33620000bb60201b60201c565b5050506200031f565b5f620000ce8383620001b660201b60201c565b620001ac5760015f808581526020019081526020015f205f015f8473ffffffffffffffffffffffffffffffffffffffff1673ffffffffffffffffffffffffffffffffffffffff1681526020019081526020015f205f6101000a81548160ff021916908315150217905550620001486200021960201b60201c565b73ffffffffffffffffffffffffffffffffffffffff168273ffffffffffffffffffffffffffffffffffffffff16847f2f8788117e7eff1d82e926ec794901d17c78024a50270940304540a733656f0d60405160405180910390a460019050620001b0565b5f90505b92915050565b5f805f8481526020019081526020015f205f015f8373ffffffffffffffffffffffffffffffffffffffff1673ffffffffffffffffffffffffffffffffffffffff1681526020019081526020015f205f9054906101000a900460ff16905092915050565b5f33905090565b5f80fd5b5f73ffffffffffffffffffffffffffffffffffffffff82169050919050565b5f6200024f8262000224565b9050919050565b5f620002628262000243565b9050919050565b620002748162000256565b81146200027f575f80fd5b50565b5f81519050620002928162000269565b92915050565b5f620002a48262000243565b9050919050565b620002b68162000298565b8114620002c1575f80fd5b50565b5f81519050620002d481620002ab565b92915050565b5f8060408385031215620002f357620002f262000220565b5b5f620003028582860162000282565b92505060206200031585828601620002c4565b9150509250929050565b60805160a0516120476200034f5f395f81816106c301526107c801525f8181610634015261080e01526120475ff3fe608060405234801561000f575f80fd5b50600436106100a7575f3560e01c806391d148541161006f57806391d148541461015f578063a217fddf1461018f578063a58216ea146101ad578063c06fad06146101dd578063d547741f146101fb578063f03906f514610217576100a7565b806301ffc9a7146100ab578063248a9ca3146100db5780632f2ff15d1461010b57806336568abe1461012757806370762d8014610143575b5f80fd5b6100c560048036038101906100c09190610c4b565b610235565b6040516100d29190610c90565b60405180910390f35b6100f560048036038101906100f09190610cdc565b6102ae565b6040516101029190610d16565b60405180910390f35b61012560048036038101906101209190610d89565b6102ca565b005b610141600480360381019061013c9190610d89565b6102ec565b005b61015d60048036038101906101589190610ea0565b610367565b005b61017960048036038101906101749190610d89565b610542565b6040516101869190610c90565b60405180910390f35b6101976105a5565b6040516101a49190610d16565b60405180910390f35b6101c760048036038101906101c29190610f31565b6105ab565b6040516101d49190610f74565b60405180910390f35b6101e56107c6565b6040516101f29190610fe8565b60405180910390f35b61021560048036038101906102109190610d89565b6107ea565b005b61021f61080c565b60405161022c9190611021565b60405180910390f35b5f7f7965db0b000000000000000000000000000000000000000000000000000000007bffffffffffffffffffffffffffffffffffffffffffffffffffffffff1916827bffffffffffffffffffffffffffffffffffffffffffffffffffffffff191614806102a757506102a682610830565b5b9050919050565b5f805f8381526020019081526020015f20600101549050919050565b6102d3826102ae565b6102dc81610899565b6102e683836108ad565b50505050565b6102f4610996565b73ffffffffffffffffffffffffffffffffffffffff168173ffffffffffffffffffffffffffffffffffffffff1614610358576040517f6697b23200000000000000000000000000000000000000000000000000000000815260040160405180910390fd5b610362828261099d565b505050565b5f801b61037381610899565b8282905085859050146103b2576040517f2c5922d100000000000000000000000000000000000000000000000000000000815260040160405180910390fd5b5f85859050036103ee576040517f819c112b00000000000000000000000000000000000000000000000000000000815260040160405180910390fd5b60405180606001604052808686808060200260200160405190810160405280939291908181526020018383602002808284375f81840152601f19601f8201169050808301925050505050505081526020018484808060200260200160405190810160405280939291908181526020018383602002808284375f81840152601f19601f8201169050808301925050505050505081526020018760048111156104985761049761103a565b5b81525060015f8860048111156104b1576104b061103a565b5b60048111156104c3576104c261103a565b5b81526020019081526020015f205f820151815f0190805190602001906104ea929190610ad7565b506020820151816001019080519060200190610507929190610b88565b506040820151816002015f6101000a81548160ff021916908360048111156105325761053161103a565b5b0217905550905050505050505050565b5f805f8481526020019081526020015f205f015f8373ffffffffffffffffffffffffffffffffffffffff1673ffffffffffffffffffffffffffffffffffffffff1681526020019081526020015f205f9054906101000a900460ff16905092915050565b5f801b81565b5f8060015f8460048111156105c3576105c261103a565b5b60048111156105d5576105d461103a565b5b81526020019081526020015f2090505f815f018054905090505f810361063257836040517f9437305f00000000000000000000000000000000000000000000000000000000815260040161062991906110ad565b60405180910390fd5b7f000000000000000000000000000000000000000000000000000000000000000073ffffffffffffffffffffffffffffffffffffffff166337da297333845f01856001016040518463ffffffff1660e01b815260040161069493929190611f2b565b5f604051808303815f87803b1580156106ab575f80fd5b505af11580156106bd573d5f803e3d5ffd5b505050507f000000000000000000000000000000000000000000000000000000000000000073ffffffffffffffffffffffffffffffffffffffff1663bd9902e233866040518363ffffffff1660e01b815260040161071c929190611f6e565b6020604051808303815f875af1158015610738573d5f803e3d5ffd5b505050506040513d601f19601f8201168201806040525081019061075c9190611fbf565b92508360048111156107715761077061103a565b5b3373ffffffffffffffffffffffffffffffffffffffff167f7b58d5cd86d12c96c5fd890d738a1b798efaacc15cc6dd180be51fff02cdc0cb856040516107b79190610f74565b60405180910390a35050919050565b7f000000000000000000000000000000000000000000000000000000000000000081565b6107f3826102ae565b6107fc81610899565b610806838361099d565b50505050565b7f000000000000000000000000000000000000000000000000000000000000000081565b5f7f01ffc9a7000000000000000000000000000000000000000000000000000000007bffffffffffffffffffffffffffffffffffffffffffffffffffffffff1916827bffffffffffffffffffffffffffffffffffffffffffffffffffffffff1916149050919050565b6108aa816108a5610996565b610a86565b50565b5f6108b88383610542565b61098c5760015f808581526020019081526020015f205f015f8473ffffffffffffffffffffffffffffffffffffffff1673ffffffffffffffffffffffffffffffffffffffff1681526020019081526020015f205f6101000a81548160ff021916908315150217905550610929610996565b73ffffffffffffffffffffffffffffffffffffffff168273ffffffffffffffffffffffffffffffffffffffff16847f2f8788117e7eff1d82e926ec794901d17c78024a50270940304540a733656f0d60405160405180910390a460019050610990565b5f90505b92915050565b5f33905090565b5f6109a88383610542565b15610a7c575f805f8581526020019081526020015f205f015f8473ffffffffffffffffffffffffffffffffffffffff1673ffffffffffffffffffffffffffffffffffffffff1681526020019081526020015f205f6101000a81548160ff021916908315150217905550610a19610996565b73ffffffffffffffffffffffffffffffffffffffff168273ffffffffffffffffffffffffffffffffffffffff16847ff6391f5c32d9c69d2a47ea670b442974b53935d1edc7fd64eb21e047a839171b60405160405180910390a460019050610a80565b5f90505b92915050565b610a908282610542565b610ad35780826040517fe2517d3f000000000000000000000000000000000000000000000000000000008152600401610aca929190611fea565b60405180910390fd5b5050565b828054828255905f5260205f2090601f01602090048101928215610b77579160200282015f5b83821115610b4957835183826101000a81548160ff02191690836006811115610b2957610b2861103a565b5b021790555092602001926001016020815f01049283019260010302610afd565b8015610b755782816101000a81549060ff02191690556001016020815f01049283019260010302610b49565b505b509050610b849190610bd3565b5090565b828054828255905f5260205f20908101928215610bc2579160200282015b82811115610bc1578251825591602001919060010190610ba6565b5b509050610bcf9190610bd3565b5090565b5b80821115610bea575f815f905550600101610bd4565b5090565b5f80fd5b5f80fd5b5f7fffffffff0000000000000000000000000000000000000000000000000000000082169050919050565b610c2a81610bf6565b8114610c34575f80fd5b50565b5f81359050610c4581610c21565b92915050565b5f60208284031215610c6057610c5f610bee565b5b5f610c6d84828501610c37565b91505092915050565b5f8115159050919050565b610c8a81610c76565b82525050565b5f602082019050610ca35f830184610c81565b92915050565b5f819050919050565b610cbb81610ca9565b8114610cc5575f80fd5b50565b5f81359050610cd681610cb2565b92915050565b5f60208284031215610cf157610cf0610bee565b5b5f610cfe84828501610cc8565b91505092915050565b610d1081610ca9565b82525050565b5f602082019050610d295f830184610d07565b92915050565b5f73ffffffffffffffffffffffffffffffffffffffff82169050919050565b5f610d5882610d2f565b9050919050565b610d6881610d4e565b8114610d72575f80fd5b50565b5f81359050610d8381610d5f565b92915050565b5f8060408385031215610d9f57610d9e610bee565b5b5f610dac85828601610cc8565b9250506020610dbd85828601610d75565b9150509250929050565b60058110610dd3575f80fd5b50565b5f81359050610de481610dc7565b92915050565b5f80fd5b5f80fd5b5f80fd5b5f8083601f840112610e0b57610e0a610dea565b5b8235905067ffffffffffffffff811115610e2857610e27610dee565b5b602083019150836020820283011115610e4457610e43610df2565b5b9250929050565b5f8083601f840112610e6057610e5f610dea565b5b8235905067ffffffffffffffff811115610e7d57610e7c610dee565b5b602083019150836020820283011115610e9957610e98610df2565b5b9250929050565b5f805f805f60608688031215610eb957610eb8610bee565b5b5f610ec688828901610dd6565b955050602086013567ffffffffffffffff811115610ee757610ee6610bf2565b5b610ef388828901610df6565b9450945050604086013567ffffffffffffffff811115610f1657610f15610bf2565b5b610f2288828901610e4b565b92509250509295509295909350565b5f60208284031215610f4657610f45610bee565b5b5f610f5384828501610dd6565b91505092915050565b5f819050919050565b610f6e81610f5c565b82525050565b5f602082019050610f875f830184610f65565b92915050565b5f819050919050565b5f610fb0610fab610fa684610d2f565b610f8d565b610d2f565b9050919050565b5f610fc182610f96565b9050919050565b5f610fd282610fb7565b9050919050565b610fe281610fc8565b82525050565b5f602082019050610ffb5f830184610fd9565b92915050565b5f61100b82610fb7565b9050919050565b61101b81611001565b82525050565b5f6020820190506110345f830184611012565b92915050565b7f4e487b71000000000000000000000000000000000000000000000000000000005f52602160045260245ffd5b600581106110785761107761103a565b5b50565b5f81905061108882611067565b919050565b5f6110978261107b565b9050919050565b6110a78161108d565b82525050565b5f6020820190506110c05f83018461109e565b92915050565b6110cf81610d4e565b82525050565b5f81549050919050565b5f82825260208201905092915050565b5f819050815f5260205f209050919050565b600781106111125761111161103a565b5b50565b5f81905061112282611101565b919050565b5f61113182611115565b9050919050565b61114181611127565b82525050565b5f815f1c9050919050565b5f60ff82169050919050565b5f61117061116b83611147565b611152565b9050919050565b5f8160081c9050919050565b5f61119561119083611177565b611152565b9050919050565b5f8160101c9050919050565b5f6111ba6111b58361119c565b611152565b9050919050565b5f8160181c9050919050565b5f6111df6111da836111c1565b611152565b9050919050565b5f8160201c9050919050565b5f6112046111ff836111e6565b611152565b9050919050565b5f8160281c9050919050565b5f6112296112248361120b565b611152565b9050919050565b5f8160301c9050919050565b5f61124e61124983611230565b611152565b9050919050565b5f8160381c9050919050565b5f61127361126e83611255565b611152565b9050919050565b5f8160401c9050919050565b5f6112986112938361127a565b611152565b9050919050565b5f8160481c9050919050565b5f6112bd6112b88361129f565b611152565b9050919050565b5f8160501c9050919050565b5f6112e26112dd836112c4565b611152565b9050919050565b5f8160581c9050919050565b5f611307611302836112e9565b611152565b9050919050565b5f8160601c9050919050565b5f61132c6113278361130e565b611152565b9050919050565b5f8160681c9050919050565b5f61135161134c83611333565b611152565b9050919050565b5f8160701c9050919050565b5f61137661137183611358565b611152565b9050919050565b5f8160781c9050919050565b5f61139b6113968361137d565b611152565b9050919050565b5f8160801c9050919050565b5f6113c06113bb836113a2565b611152565b9050919050565b5f8160881c9050919050565b5f6113e56113e0836113c7565b611152565b9050919050565b5f8160901c9050919050565b5f61140a611405836113ec565b611152565b9050919050565b5f8160981c9050919050565b5f61142f61142a83611411565b611152565b9050919050565b5f8160a01c9050919050565b5f61145461144f83611436565b611152565b9050919050565b5f8160a81c9050919050565b5f6114796114748361145b565b611152565b9050919050565b5f8160b01c9050919050565b5f61149e61149983611480565b611152565b9050919050565b5f8160b81c9050919050565b5f6114c36114be836114a5565b611152565b9050919050565b5f8160c01c9050919050565b5f6114e86114e3836114ca565b611152565b9050919050565b5f8160c81c9050919050565b5f61150d611508836114ef565b611152565b9050919050565b5f8160d01c9050919050565b5f61153261152d83611514565b611152565b9050919050565b5f8160d81c9050919050565b5f61155761155283611539565b611152565b9050919050565b5f8160e01c9050919050565b5f61157c6115778361155e565b611152565b9050919050565b5f8160e81c9050919050565b5f6115a161159c83611583565b611152565b9050919050565b5f8160f01c9050919050565b5f6115c66115c1836115a8565b611152565b9050919050565b5f8160f81c9050919050565b5f6115eb6115e6836115cd565b611152565b9050919050565b5f6115fc826110d5565b61160681856110df565b935083611612846110ef565b5f60011561193e575b8360016020038201101561193d57815461163d886116388361115e565b611138565b6020880197506116558861165083611183565b611138565b60208801975061166d88611668836111a8565b611138565b60208801975061168588611680836111cd565b611138565b60208801975061169d88611698836111f2565b611138565b6020880197506116b5886116b083611217565b611138565b6020880197506116cd886116c88361123c565b611138565b6020880197506116e5886116e083611261565b611138565b6020880197506116fd886116f883611286565b611138565b60208801975061171588611710836112ab565b611138565b60208801975061172d88611728836112d0565b611138565b60208801975061174588611740836112f5565b611138565b60208801975061175d886117588361131a565b611138565b602088019750611775886117708361133f565b611138565b60208801975061178d8861178883611364565b611138565b6020880197506117a5886117a083611389565b611138565b6020880197506117bd886117b8836113ae565b611138565b6020880197506117d5886117d0836113d3565b611138565b6020880197506117ed886117e8836113f8565b611138565b602088019750611805886118008361141d565b611138565b60208801975061181d8861181883611442565b611138565b6020880197506118358861183083611467565b611138565b60208801975061184d886118488361148c565b611138565b60208801975061186588611860836114b1565b611138565b60208801975061187d88611878836114d6565b611138565b60208801975061189588611890836114fb565b611138565b6020880197506118ad886118a883611520565b611138565b6020880197506118c5886118c083611545565b611138565b6020880197506118dd886118d88361156a565b611138565b6020880197506118f5886118f08361158f565b611138565b60208801975061190d88611908836115b4565b611138565b60208801975061192588611920836115d9565b611138565b6020880197506001830192505060208101905061161b565b5b600115611e295781548482101561196e576119618861195c8361115e565b611138565b6020880197506001820191505b84821015611995576119888861198383611183565b611138565b6020880197506001820191505b848210156119bc576119af886119aa836111a8565b611138565b6020880197506001820191505b848210156119e3576119d6886119d1836111cd565b611138565b6020880197506001820191505b84821015611a0a576119fd886119f8836111f2565b611138565b6020880197506001820191505b84821015611a3157611a2488611a1f83611217565b611138565b6020880197506001820191505b84821015611a5857611a4b88611a468361123c565b611138565b6020880197506001820191505b84821015611a7f57611a7288611a6d83611261565b611138565b6020880197506001820191505b84821015611aa657611a9988611a9483611286565b611138565b6020880197506001820191505b84821015611acd57611ac088611abb836112ab565b611138565b6020880197506001820191505b84821015611af457611ae788611ae2836112d0565b611138565b6020880197506001820191505b84821015611b1b57611b0e88611b09836112f5565b611138565b6020880197506001820191505b84821015611b4257611b3588611b308361131a565b611138565b6020880197506001820191505b84821015611b6957611b5c88611b578361133f565b611138565b6020880197506001820191505b84821015611b9057611b8388611b7e83611364565b611138565b6020880197506001820191505b84821015611bb757611baa88611ba583611389565b611138565b6020880197506001820191505b84821015611bde57611bd188611bcc836113ae565b611138565b6020880197506001820191505b84821015611c0557611bf888611bf3836113d3565b611138565b6020880197506001820191505b84821015611c2c57611c1f88611c1a836113f8565b611138565b6020880197506001820191505b84821015611c5357611c4688611c418361141d565b611138565b6020880197506001820191505b84821015611c7a57611c6d88611c6883611442565b611138565b6020880197506001820191505b84821015611ca157611c9488611c8f83611467565b611138565b6020880197506001820191505b84821015611cc857611cbb88611cb68361148c565b611138565b6020880197506001820191505b84821015611cef57611ce288611cdd836114b1565b611138565b6020880197506001820191505b84821015611d1657611d0988611d04836114d6565b611138565b6020880197506001820191505b84821015611d3d57611d3088611d2b836114fb565b611138565b6020880197506001820191505b84821015611d6457611d5788611d5283611520565b611138565b6020880197506001820191505b84821015611d8b57611d7e88611d7983611545565b611138565b6020880197506001820191505b84821015611db257611da588611da08361156a565b611138565b6020880197506001820191505b84821015611dd957611dcc88611dc78361158f565b611138565b6020880197506001820191505b84821015611e0057611df388611dee836115b4565b611138565b6020880197506001820191505b84821015611e2757611e1a88611e15836115d9565b611138565b6020880197506001820191505b505b8694505050505092915050565b5f81549050919050565b5f82825260208201905092915050565b5f819050815f5260205f209050919050565b611e6b81610f5c565b82525050565b5f611e7c8383611e62565b60208301905092915050565b5f819050919050565b5f611ea3611e9e83611147565b611e88565b9050919050565b5f611eb58254611e91565b9050919050565b5f600182019050919050565b5f611ed282611e36565b611edc8185611e40565b9350611ee783611e50565b805f5b83811015611f1e57611efb82611eaa565b611f058882611e71565b9750611f1083611ebc565b925050600181019050611eea565b5085935050505092915050565b5f606082019050611f3e5f8301866110c6565b8181036020830152611f5081856115f2565b90508181036040830152611f648184611ec8565b9050949350505050565b5f604082019050611f815f8301856110c6565b611f8e602083018461109e565b9392505050565b611f9e81610f5c565b8114611fa8575f80fd5b50565b5f81519050611fb981611f95565b92915050565b5f60208284031215611fd457611fd3610bee565b5b5f611fe184828501611fab565b91505092915050565b5f604082019050611ffd5f8301856110c6565b61200a6020830184610d07565b939250505056fea2646970667358221220c14038018d24b309a9ed733f87bddd6550be20bec4b99b5de847f20cb356c70964736f6c63430008180033","linkReferences":{}},"methodIdentifiers":{"DEFAULT_ADMIN_ROLE()":"a217fddf","craft(uint8)":"a58216ea","getRoleAdmin(bytes32)":"248a9ca3","grantRole(bytes32,address)":"2f2ff15d","hasRole(bytes32,address)":"91d14854","items()":"c06fad06","renounceRole(bytes32,address)":"36568abe","resources()":"f03906f5","revokeRole(bytes32,address)":"d547741f","setRecipe(uint8,uint8[],uint256[])":"70762d80","supportsInterface(bytes4)":"01ffc9a7"},"id":44}