{"abi":[{"type":"constructor","inputs":[{"name":"baseUri_","type":"string","internalType":"string"}],"stateMutability":"nonpayable"},{"type":"function","name":"BURNER_ROLE","inputs":[],"outputs":[{"name":"","type":"bytes32","internalType":"bytes32"}],"stateMutability":"view"},{"type":"function","name":"DEFAULT_ADMIN_ROLE","inputs":[],"outputs":[{"name":"","type":"bytes32","internalType":"bytes32"}],"stateMutability":"view"},{"type":"function","name":"MINTER_ROLE","inputs":[],"outputs":[{"name":"","type":"bytes32","internalType":"bytes32"}],"stateMutability":"view"},{"type":"function","name":"balanceOf","inputs":[{"name":"account","type":"address","internalType":"address"},{"name":"id","type":"uint256","internalType":"uint256"}],"outputs":[{"name":"","type":"uint256","internalType":"uint256"}],"stateMutability":"view"},{"type":"function","name":"balanceOfBatch","inputs":[{"name":"accounts","type":"address[]","internalType":"address[]"},{"name":"ids","type":"uint256[]","internalType":"uint256[]"}],"outputs":[{"name":"","type":"uint256[]","internalType":"uint256[]"}],"stateMutability":"view"},{"type":"function","name":"burnAuthorized","inputs":[{"name":"from","type":"address","internalType":"address"},{"name":"id","type":"uint8","internalType":"enum ItemTypes.ResourceId"},{"name":"amount","type":"uint256","internalType":"uint256"}],"outputs":[],"stateMutability":"nonpayable"},{"type":"function","name":"burnBatchAuthorized","inputs":[{"name":"from","type":"address","internalType":"address"},{"name":"ids","type":"uint8[]","internalType":"enum ItemTypes.ResourceId[]"},{"name":"amounts","type":"uint256[]","internalType":"uint256[]"}],"outputs":[],"stateMutability":"nonpayable"},{"type":"function","name":"getRoleAdmin","inputs":[{"name":"role","type":"bytes32","internalType":"bytes32"}],"outputs":[{"name":"","type":"bytes32","internalType":"bytes32"}],"stateMutability":"view"},{"type":"function","name":"grantRole","inputs":[{"name":"role","type":"bytes32","internalType":"bytes32"},{"name":"account","type":"address","internalType":"address"}],"outputs":[],"stateMutability":"nonpayable"},{"type":"function","name":"hasRole","inputs":[{"name":"role","type":"bytes32","internalType":"bytes32"},{"name":"account","type":"address","internalType":"address"}],"outputs":[{"name":"","type":"bool","internalType":"bool"}],"stateMutability":"view"},{"type":"function","name":"isApprovedForAll","inputs":[{"name":"account","type":"address","internalType":"address"},{"name":"operator","type":"address","internalType":"address"}],"outputs":[{"name":"","type":"bool","internalType":"bool"}],"stateMutability":"view"},{"type":"function","name":"mintAuthorized","inputs":[{"name":"to","type":"address","internalType":"address"},{"name":"id","type":"uint8","internalType":"enum ItemTypes.ResourceId"},{"name":"amount","type":"uint256","internalType":"uint256"}],"outputs":[],"stateMutability":"nonpayable"},{"type":"function","name":"mintBatchAuthorized","inputs":[{"name":"to","type":"address","internalType":"address"},{"name":"ids","type":"uint8[]","internalType":"enum ItemTypes.ResourceId[]"},{"name":"amounts","type":"uint256[]","internalType":"uint256[]"}],"outputs":[],"stateMutability":"nonpayable"},{"type":"function","name":"renounceRole","inputs":[{"name":"role","type":"bytes32","internalType":"bytes32"},{"name":"callerConfirmation","type":"address","internalType":"address"}],"outputs":[],"stateMutability":"nonpayable"},{"type":"function","name":"revokeRole","inputs":[{"name":"role","type":"bytes32","internalType":"bytes32"},{"name":"account","type":"address","internalType":"address"}],"outputs":[],"stateMutability":"nonpayable"},{"type":"function","name":"safeBatchTransferFrom","inputs":[{"name":"from","type":"address","internalType":"address"},{"name":"to","type":"address","internalType":"address"},{"name":"ids","type":"uint256[]","internalType":"uint256[]"},{"name":"values","type":"uint256[]","internalType":"uint256[]"},{"name":"data","type":"bytes","internalType":"bytes"}],"outputs":[],"stateMutability":"nonpayable"},{"type":"function","name":"safeTransferFrom","inputs":[{"name":"from","type":"address","internalType":"address"},{"name":"to","type":"address","internalType":"address"},{"name":"id","type":"uint256","internalType":"uint256"},{"name":"value","type":"uint256","internalType":"uint256"},{"name":"data","type":"bytes","internalType":"bytes"}],"outputs":[],"stateMutability":"nonpayable"},{"type":"function","name":"setApprovalForAll","inputs":[{"name":"operator","type":"address","internalType":"address"},{"name":"approved","type":"bool","internalType":"bool"}],"outputs":[],"stateMutability":"nonpayable"},{"type":"function","name":"setBaseURI","inputs":[{"name":"newBase","type":"string","internalType":"string"}],"outputs":[],"stateMutability":"nonpayable"},{"type":"function","name":"supportsInterface","inputs":[{"name":"interfaceId","type":"bytes4","internalType":"bytes4"}],"outputs":[{"name":"","type":"bool","internalType":"bool"}],"stateMutability":"view"},{"type":"function","name":"uri","inputs":[{"name":"id","type":"uint256","internalType":"uint256"}],"outputs":[{"name":"","type":"string","internalType":"string"}],"stateMutability":"view"},{"type":"event","name":"ApprovalForAll","inputs":[{"name":"account","type":"address","indexed":true,"internalType":"address"},{"name":"operator","type":"address","indexed":true,"internalType":"address"},{"name":"approved","type":"bool","indexed":false,"internalType":"bool"}],"anonymous":false},{"type":"event","name":"RoleAdminChanged","inputs":[{"name":"role","type":"bytes32","indexed":true,"internalType":"bytes32"},{"name":"previousAdminRole","type":"bytes32","indexed":true,"internalType":"bytes32"},{"name":"newAdminRole","type":"bytes32","indexed":true,"internalType":"bytes32"}],"anonymous":false},{"type":"event","name":"RoleGranted","inputs":[{"name":"role","type":"bytes32","indexed":true,"internalType":"bytes32"},{"name":"account","type":"address","indexed":true,"internalType":"address"},{"name":"sender","type":"address","indexed":true,"internalType":"address"}],"anonymous":false},{"type":"event","name":"RoleRevoked","inputs":[{"name":"role","type":"bytes32","indexed":true,"internalType":"bytes32"},{"name":"account","type":"address","indexed":true,"internalType":"address"},{"name":"sender","type":"address","indexed":true,"internalType":"address"}],"anonymous":false},{"type":"event","name":"TransferBatch","inputs":[{"name":"operator","type":"address","indexed":true,"internalType":"address"},{"name":"from","type":"address","indexed":true,"internalType":"address"},{"name":"to","type":"address","indexed":true,"internalType":"address"},{"name":"ids","type":"uint256[]","indexed":false,"internalType":"uint256[]"},{"name":"values","type":"uint256[]","indexed":false,"internalType":"uint256[]"}],"anonymous":false},{"type":"event","name":"TransferSingle","inputs":[{"name":"operator","type":"address","indexed":true,"internalType":"address"},{"name":"from","type":"address","indexed":true,"internalType":"address"},{"name":"to","type":"address","indexed":true,"internalType":"address"},{"name":"id","type":"uint256","indexed":false,"internalType":"uint256"},{"name":"value","type":"uint256","indexed":false,"internalType":"uint256"}],"anonymous":false},{"type":"event","name":"URI","inputs":[{"name":"value","type":"string","indexed":false,"internalType":"string"},{"name":"id","type":"uint256","indexed":true,"internalType":"uint256"}],"anonymous":false},{"type":"error","name":"AccessControlBadConfirmation","inputs":[]},{"type":"error","name":"AccessControlUnauthorizedAccount","inputs":[{"name":"account","type":"address","internalType":"address"},{"name":"neededRole","type":"bytes32","internalType":"bytes32"}]},{"type":"error","name":"ERC1155InsufficientBalance","inputs":[{"name":"sender","type":"address","internalType":"address"},{"name":"balance","type":"uint256","internalType":"uint256"},{"name":"needed","type":"uint256","internalType":"uint256"},{"name":"tokenId","type":"uint256","internalType":"uint256"}]},{"type":"error","name":"ERC1155InvalidApprover","inputs":[{"name":"approver","type":"address","internalType":"address"}]},{"type":"error","name":"ERC1155InvalidArrayLength","inputs":[{"name":"idsLength","type":"uint256","internalType":"uint256"},{"name":"valuesLength","type":"uint256","internalType":"uint256"}]},{"type":"error","name":"ERC1155InvalidOperator","inputs":[{"name":"operator","type":"address","internalType":"address"}]},{"type":"error","name":"ERC1155InvalidReceiver","inputs":[{"name":"receiver","type":"address","internalType":"address"}]},{"type":"error","name":"ERC1155InvalidSender","inputs":[{"name":"sender","type":"address","internalType":"address"}]},{"type":"error","name":"ERC1155MissingApprovalForAll","inputs":[{"name":"operator","type":"address","internalType":"address"},{"name":"owner","type":"address","internalType":"address"}]}],"bytecode":{"object":"0x608060405234801562000010575f80fd5b5060405162003b0438038062003b04833981810160405281019062000036919062000386565b60405180602001604052805f81525062000056816200008560201b60201c565b5080600490816200006891906200060c565b506200007d5f801b336200009a60201b60201c565b5050620006f0565b80600290816200009691906200060c565b5050565b5f620000ad83836200019660201b60201c565b6200018c57600160035f8581526020019081526020015f205f015f8473ffffffffffffffffffffffffffffffffffffffff1673ffffffffffffffffffffffffffffffffffffffff1681526020019081526020015f205f6101000a81548160ff02191690831515021790555062000128620001fa60201b60201c565b73ffffffffffffffffffffffffffffffffffffffff168273ffffffffffffffffffffffffffffffffffffffff16847f2f8788117e7eff1d82e926ec794901d17c78024a50270940304540a733656f0d60405160405180910390a46001905062000190565b5f90505b92915050565b5f60035f8481526020019081526020015f205f015f8373ffffffffffffffffffffffffffffffffffffffff1673ffffffffffffffffffffffffffffffffffffffff1681526020019081526020015f205f9054906101000a900460ff16905092915050565b5f33905090565b5f604051905090565b5f80fd5b5f80fd5b5f80fd5b5f80fd5b5f601f19601f8301169050919050565b7f4e487b71000000000000000000000000000000000000000000000000000000005f52604160045260245ffd5b62000262826200021a565b810181811067ffffffffffffffff821117156200028457620002836200022a565b5b80604052505050565b5f6200029862000201565b9050620002a6828262000257565b919050565b5f67ffffffffffffffff821115620002c857620002c76200022a565b5b620002d3826200021a565b9050602081019050919050565b5f5b83811015620002ff578082015181840152602081019050620002e2565b5f8484015250505050565b5f620003206200031a84620002ab565b6200028d565b9050828152602081018484840111156200033f576200033e62000216565b5b6200034c848285620002e0565b509392505050565b5f82601f8301126200036b576200036a62000212565b5b81516200037d8482602086016200030a565b91505092915050565b5f602082840312156200039e576200039d6200020a565b5b5f82015167ffffffffffffffff811115620003be57620003bd6200020e565b5b620003cc8482850162000354565b91505092915050565b5f81519050919050565b7f4e487b71000000000000000000000000000000000000000000000000000000005f52602260045260245ffd5b5f60028204905060018216806200042457607f821691505b6020821081036200043a5762000439620003df565b5b50919050565b5f819050815f5260205f209050919050565b5f6020601f8301049050919050565b5f82821b905092915050565b5f600883026200049e7fffffffffffffffffffffffffffffffffffffffffffffffffffffffffffffffff8262000461565b620004aa868362000461565b95508019841693508086168417925050509392505050565b5f819050919050565b5f819050919050565b5f620004f4620004ee620004e884620004c2565b620004cb565b620004c2565b9050919050565b5f819050919050565b6200050f83620004d4565b620005276200051e82620004fb565b8484546200046d565b825550505050565b5f90565b6200053d6200052f565b6200054a81848462000504565b505050565b5b818110156200057157620005655f8262000533565b60018101905062000550565b5050565b601f821115620005c0576200058a8162000440565b620005958462000452565b81016020851015620005a5578190505b620005bd620005b48562000452565b8301826200054f565b50505b505050565b5f82821c905092915050565b5f620005e25f1984600802620005c5565b1980831691505092915050565b5f620005fc8383620005d1565b9150826002028217905092915050565b6200061782620003d5565b67ffffffffffffffff8111156200063357620006326200022a565b5b6200063f82546200040c565b6200064c82828562000575565b5f60209050601f83116001811462000682575f84156200066d578287015190505b620006798582620005ef565b865550620006e8565b601f198416620006928662000440565b5f5b82811015620006bb5784890151825560018201915060208501945060208101905062000694565b86831015620006db5784890151620006d7601f891682620005d1565b8355505b6001600288020188555050505b505050505050565b61340680620006fe5f395ff3fe608060405234801561000f575f80fd5b5060043610610134575f3560e01c8063512d00c2116100b6578063a22cb4651161007a578063a22cb46514610358578063d539139314610374578063d547741f14610392578063d61669bc146103ae578063e985e9c5146103ca578063f242432a146103fa57610134565b8063512d00c2146102b657806355f804b3146102d25780638a203756146102ee57806391d148541461030a578063a217fddf1461033a57610134565b80632eb2c2d6116100fd5780632eb2c2d6146102165780632f2ff15d1461023257806336568abe1461024e57806337da29731461026a5780634e1273f41461028657610134565b8062fdd58e1461013857806301ffc9a7146101685780630e89341c14610198578063248a9ca3146101c8578063282c51f3146101f8575b5f80fd5b610152600480360381019061014d91906120fd565b610416565b60405161015f919061214a565b60405180910390f35b610182600480360381019061017d91906121b8565b61046b565b60405161018f91906121fd565b60405180910390f35b6101b260048036038101906101ad9190612216565b61048c565b6040516101bf91906122cb565b60405180910390f35b6101e260048036038101906101dd919061231e565b6104c0565b6040516101ef9190612358565b60405180910390f35b6102006104dd565b60405161020d9190612358565b60405180910390f35b610230600480360381019061022b9190612561565b610501565b005b61024c6004803603810190610247919061262c565b6105a8565b005b6102686004803603810190610263919061262c565b6105ca565b005b610284600480360381019061027f9190612718565b610645565b005b6102a0600480360381019061029b9190612869565b610786565b6040516102ad9190612996565b60405180910390f35b6102d060048036038101906102cb91906129d9565b61088d565b005b6102ec60048036038101906102e79190612a7e565b6108da565b005b610308600480360381019061030391906129d9565b6108fd565b005b610324600480360381019061031f919061262c565b610959565b60405161033191906121fd565b60405180910390f35b6103426109bd565b60405161034f9190612358565b60405180910390f35b610372600480360381019061036d9190612af3565b6109c3565b005b61037c6109d9565b6040516103899190612358565b60405180910390f35b6103ac60048036038101906103a7919061262c565b6109fd565b005b6103c860048036038101906103c39190612718565b610a1f565b005b6103e460048036038101906103df9190612b31565b610b6f565b6040516103f191906121fd565b60405180910390f35b610414600480360381019061040f9190612b6f565b610bfd565b005b5f805f8381526020019081526020015f205f8473ffffffffffffffffffffffffffffffffffffffff1673ffffffffffffffffffffffffffffffffffffffff1681526020019081526020015f2054905092915050565b5f61047582610ca4565b80610485575061048482610d85565b5b9050919050565b6060600461049983610dfe565b6040516020016104aa929190612dbf565b6040516020818303038152906040529050919050565b5f60035f8381526020019081526020015f20600101549050919050565b7f3c11d16cbaffd01df69ce1c404f6340ee057498f5f00246190ea54220576a84881565b5f61050a610ec8565b90508073ffffffffffffffffffffffffffffffffffffffff168673ffffffffffffffffffffffffffffffffffffffff161415801561054f575061054d8682610b6f565b155b156105935780866040517fe237d92200000000000000000000000000000000000000000000000000000000815260040161058a929190612e07565b60405180910390fd5b6105a08686868686610ecf565b505050505050565b6105b1826104c0565b6105ba81610fc3565b6105c48383610fd7565b50505050565b6105d2610ec8565b73ffffffffffffffffffffffffffffffffffffffff168173ffffffffffffffffffffffffffffffffffffffff1614610636576040517f6697b23200000000000000000000000000000000000000000000000000000000815260040160405180910390fd5b61064082826110c1565b505050565b7f3c11d16cbaffd01df69ce1c404f6340ee057498f5f00246190ea54220576a84861066f81610fc3565b5f8585905067ffffffffffffffff81111561068d5761068c612375565b5b6040519080825280602002602001820160405280156106bb5781602001602082028036833780820191505090505b5090505f5b86869050811015610731578686828181106106de576106dd612e2e565b5b90506020020160208101906106f39190612e5b565b600681111561070557610704612e86565b5b82828151811061071857610717612e2e565b5b60200260200101818152505080806001019150506106c0565b5061077d87828686808060200260200160405190810160405280939291908181526020018383602002808284375f81840152601f19601f820116905080830192505050505050506111ab565b50505050505050565b606081518351146107d257815183516040517f5b0599910000000000000000000000000000000000000000000000000000000081526004016107c9929190612eb3565b60405180910390fd5b5f835167ffffffffffffffff8111156107ee576107ed612375565b5b60405190808252806020026020018201604052801561081c5781602001602082028036833780820191505090505b5090505f5b845181101561088257610858610840828761123b90919063ffffffff16565b610853838761124e90919063ffffffff16565b610416565b82828151811061086b5761086a612e2e565b5b602002602001018181525050806001019050610821565b508091505092915050565b7f3c11d16cbaffd01df69ce1c404f6340ee057498f5f00246190ea54220576a8486108b781610fc3565b6108d4848460068111156108ce576108cd612e86565b5b84611261565b50505050565b5f801b6108e681610fc3565b8282600491826108f792919061306f565b50505050565b7f9f2df0fed2c77648de5860a4cc508cd0818c85b8b8a1ab4ceeef8d981c8956a661092781610fc3565b6109538484600681111561093e5761093d612e86565b5b8460405180602001604052805f815250611303565b50505050565b5f60035f8481526020019081526020015f205f015f8373ffffffffffffffffffffffffffffffffffffffff1673ffffffffffffffffffffffffffffffffffffffff1681526020019081526020015f205f9054906101000a900460ff16905092915050565b5f801b81565b6109d56109ce610ec8565b8383611398565b5050565b7f9f2df0fed2c77648de5860a4cc508cd0818c85b8b8a1ab4ceeef8d981c8956a681565b610a06826104c0565b610a0f81610fc3565b610a1983836110c1565b50505050565b7f9f2df0fed2c77648de5860a4cc508cd0818c85b8b8a1ab4ceeef8d981c8956a6610a4981610fc3565b5f8585905067ffffffffffffffff811115610a6757610a66612375565b5b604051908082528060200260200182016040528015610a955781602001602082028036833780820191505090505b5090505f5b86869050811015610b0b57868682818110610ab857610ab7612e2e565b5b9050602002016020810190610acd9190612e5b565b6006811115610adf57610ade612e86565b5b828281518110610af257610af1612e2e565b5b6020026020010181815250508080600101915050610a9a565b50610b6687828686808060200260200160405190810160405280939291908181526020018383602002808284375f81840152601f19601f8201169050808301925050505050505060405180602001604052805f815250611501565b50505050505050565b5f60015f8473ffffffffffffffffffffffffffffffffffffffff1673ffffffffffffffffffffffffffffffffffffffff1681526020019081526020015f205f8373ffffffffffffffffffffffffffffffffffffffff1673ffffffffffffffffffffffffffffffffffffffff1681526020019081526020015f205f9054906101000a900460ff16905092915050565b5f610c06610ec8565b90508073ffffffffffffffffffffffffffffffffffffffff168673ffffffffffffffffffffffffffffffffffffffff1614158015610c4b5750610c498682610b6f565b155b15610c8f5780866040517fe237d922000000000000000000000000000000000000000000000000000000008152600401610c86929190612e07565b60405180910390fd5b610c9c8686868686611584565b505050505050565b5f7fd9b67a26000000000000000000000000000000000000000000000000000000007bffffffffffffffffffffffffffffffffffffffffffffffffffffffff1916827bffffffffffffffffffffffffffffffffffffffffffffffffffffffff19161480610d6e57507f0e89341c000000000000000000000000000000000000000000000000000000007bffffffffffffffffffffffffffffffffffffffffffffffffffffffff1916827bffffffffffffffffffffffffffffffffffffffffffffffffffffffff1916145b80610d7e5750610d7d8261168a565b5b9050919050565b5f7f7965db0b000000000000000000000000000000000000000000000000000000007bffffffffffffffffffffffffffffffffffffffffffffffffffffffff1916827bffffffffffffffffffffffffffffffffffffffffffffffffffffffff19161480610df75750610df682610ca4565b5b9050919050565b60605f6001610e0c846116f3565b0190505f8167ffffffffffffffff811115610e2a57610e29612375565b5b6040519080825280601f01601f191660200182016040528015610e5c5781602001600182028036833780820191505090505b5090505f82602083010190505b600115610ebd578080600190039150507f3031323334353637383961626364656600000000000000000000000000000000600a86061a8153600a8581610eb257610eb161313c565b5b0494505f8503610e69575b819350505050919050565b5f33905090565b5f73ffffffffffffffffffffffffffffffffffffffff168473ffffffffffffffffffffffffffffffffffffffff1603610f3f575f6040517f57f447ce000000000000000000000000000000000000000000000000000000008152600401610f369190613169565b60405180910390fd5b5f73ffffffffffffffffffffffffffffffffffffffff168573ffffffffffffffffffffffffffffffffffffffff1603610faf575f6040517f01a83514000000000000000000000000000000000000000000000000000000008152600401610fa69190613169565b60405180910390fd5b610fbc8585858585611844565b5050505050565b610fd481610fcf610ec8565b6118f0565b50565b5f610fe28383610959565b6110b757600160035f8581526020019081526020015f205f015f8473ffffffffffffffffffffffffffffffffffffffff1673ffffffffffffffffffffffffffffffffffffffff1681526020019081526020015f205f6101000a81548160ff021916908315150217905550611054610ec8565b73ffffffffffffffffffffffffffffffffffffffff168273ffffffffffffffffffffffffffffffffffffffff16847f2f8788117e7eff1d82e926ec794901d17c78024a50270940304540a733656f0d60405160405180910390a4600190506110bb565b5f90505b92915050565b5f6110cc8383610959565b156111a1575f60035f8581526020019081526020015f205f015f8473ffffffffffffffffffffffffffffffffffffffff1673ffffffffffffffffffffffffffffffffffffffff1681526020019081526020015f205f6101000a81548160ff02191690831515021790555061113e610ec8565b73ffffffffffffffffffffffffffffffffffffffff168273ffffffffffffffffffffffffffffffffffffffff16847ff6391f5c32d9c69d2a47ea670b442974b53935d1edc7fd64eb21e047a839171b60405160405180910390a4600190506111a5565b5f90505b92915050565b5f73ffffffffffffffffffffffffffffffffffffffff168373ffffffffffffffffffffffffffffffffffffffff160361121b575f6040517f01a835140000000000000000000000000000000000000000000000000000000081526004016112129190613169565b60405180910390fd5b611236835f848460405180602001604052805f815250611844565b505050565b5f60208202602084010151905092915050565b5f60208202602084010151905092915050565b5f73ffffffffffffffffffffffffffffffffffffffff168373ffffffffffffffffffffffffffffffffffffffff16036112d1575f6040517f01a835140000000000000000000000000000000000000000000000000000000081526004016112c89190613169565b60405180910390fd5b5f806112dd8484611941565b915091506112fc855f848460405180602001604052805f815250611844565b5050505050565b5f73ffffffffffffffffffffffffffffffffffffffff168473ffffffffffffffffffffffffffffffffffffffff1603611373575f6040517f57f447ce00000000000000000000000000000000000000000000000000000000815260040161136a9190613169565b60405180910390fd5b5f8061137f8585611941565b915091506113905f87848487611844565b505050505050565b5f73ffffffffffffffffffffffffffffffffffffffff168273ffffffffffffffffffffffffffffffffffffffff1603611408575f6040517fced3e1000000000000000000000000000000000000000000000000000000000081526004016113ff9190613169565b60405180910390fd5b8060015f8573ffffffffffffffffffffffffffffffffffffffff1673ffffffffffffffffffffffffffffffffffffffff1681526020019081526020015f205f8473ffffffffffffffffffffffffffffffffffffffff1673ffffffffffffffffffffffffffffffffffffffff1681526020019081526020015f205f6101000a81548160ff0219169083151502179055508173ffffffffffffffffffffffffffffffffffffffff168373ffffffffffffffffffffffffffffffffffffffff167f17307eab39ab6107e8899845ad3d59bd9653f200f220920489ca2b5937696c31836040516114f491906121fd565b60405180910390a3505050565b5f73ffffffffffffffffffffffffffffffffffffffff168473ffffffffffffffffffffffffffffffffffffffff1603611571575f6040517f57f447ce0000000000000000000000000000000000000000000000000000000081526004016115689190613169565b60405180910390fd5b61157e5f85858585611844565b50505050565b5f73ffffffffffffffffffffffffffffffffffffffff168473ffffffffffffffffffffffffffffffffffffffff16036115f4575f6040517f57f447ce0000000000000000000000000000000000000000000000000000000081526004016115eb9190613169565b60405180910390fd5b5f73ffffffffffffffffffffffffffffffffffffffff168573ffffffffffffffffffffffffffffffffffffffff1603611664575f6040517f01a8351400000000000000000000000000000000000000000000000000000000815260040161165b9190613169565b60405180910390fd5b5f806116708585611941565b915091506116818787848487611844565b50505050505050565b5f7f01ffc9a7000000000000000000000000000000000000000000000000000000007bffffffffffffffffffffffffffffffffffffffffffffffffffffffff1916827bffffffffffffffffffffffffffffffffffffffffffffffffffffffff1916149050919050565b5f805f90507a184f03e93ff9f4daa797ed6e38ed64bf6a1f010000000000000000831061174f577a184f03e93ff9f4daa797ed6e38ed64bf6a1f01000000000000000083816117455761174461313c565b5b0492506040810190505b6d04ee2d6d415b85acef8100000000831061178c576d04ee2d6d415b85acef810000000083816117825761178161313c565b5b0492506020810190505b662386f26fc1000083106117bb57662386f26fc1000083816117b1576117b061313c565b5b0492506010810190505b6305f5e10083106117e4576305f5e10083816117da576117d961313c565b5b0492506008810190505b61271083106118095761271083816117ff576117fe61313c565b5b0492506004810190505b6064831061182c57606483816118225761182161313c565b5b0492506002810190505b600a831061183b576001810190505b80915050919050565b61185085858585611971565b5f73ffffffffffffffffffffffffffffffffffffffff168473ffffffffffffffffffffffffffffffffffffffff16146118e9575f61188c610ec8565b905060018451036118d8575f6118ab5f8661124e90919063ffffffff16565b90505f6118c15f8661124e90919063ffffffff16565b90506118d1838989858589611d01565b50506118e7565b6118e6818787878787611eb0565b5b505b5050505050565b6118fa8282610959565b61193d5780826040517fe2517d3f000000000000000000000000000000000000000000000000000000008152600401611934929190613182565b60405180910390fd5b5050565b60608060405191506001825283602083015260408201905060018152826020820152604081016040529250929050565b80518251146119bb57815181516040517f5b0599910000000000000000000000000000000000000000000000000000000081526004016119b2929190612eb3565b60405180910390fd5b5f6119c4610ec8565b90505f5b8351811015611bc0575f6119e5828661124e90919063ffffffff16565b90505f6119fb838661124e90919063ffffffff16565b90505f73ffffffffffffffffffffffffffffffffffffffff168873ffffffffffffffffffffffffffffffffffffffff1614611b1e575f805f8481526020019081526020015f205f8a73ffffffffffffffffffffffffffffffffffffffff1673ffffffffffffffffffffffffffffffffffffffff1681526020019081526020015f2054905081811015611aca57888183856040517f03dee4c5000000000000000000000000000000000000000000000000000000008152600401611ac194939291906131a9565b60405180910390fd5b8181035f808581526020019081526020015f205f8b73ffffffffffffffffffffffffffffffffffffffff1673ffffffffffffffffffffffffffffffffffffffff1681526020019081526020015f2081905550505b5f73ffffffffffffffffffffffffffffffffffffffff168773ffffffffffffffffffffffffffffffffffffffff1614611bb357805f808481526020019081526020015f205f8973ffffffffffffffffffffffffffffffffffffffff1673ffffffffffffffffffffffffffffffffffffffff1681526020019081526020015f205f828254611bab9190613219565b925050819055505b50508060010190506119c8565b506001835103611c7b575f611bde5f8561124e90919063ffffffff16565b90505f611bf45f8561124e90919063ffffffff16565b90508573ffffffffffffffffffffffffffffffffffffffff168773ffffffffffffffffffffffffffffffffffffffff168473ffffffffffffffffffffffffffffffffffffffff167fc3d58168c5ae7397731d063d5bbf3d657854427343f4c083240f7aacaa2d0f628585604051611c6c929190612eb3565b60405180910390a45050611cfa565b8373ffffffffffffffffffffffffffffffffffffffff168573ffffffffffffffffffffffffffffffffffffffff168273ffffffffffffffffffffffffffffffffffffffff167f4a39dc06d4c0dbc64b70af90fd698a233a518aa5d07e595d983b8c0526c8f7fb8686604051611cf192919061324c565b60405180910390a45b5050505050565b5f8473ffffffffffffffffffffffffffffffffffffffff163b1115611ea8578373ffffffffffffffffffffffffffffffffffffffff1663f23a6e6187878686866040518663ffffffff1660e01b8152600401611d619594939291906132d3565b6020604051808303815f875af1925050508015611d9c57506040513d601f19601f82011682018060405250810190611d99919061333f565b60015b611e1d573d805f8114611dca576040519150601f19603f3d011682016040523d82523d5f602084013e611dcf565b606091505b505f815103611e1557846040517f57f447ce000000000000000000000000000000000000000000000000000000008152600401611e0c9190613169565b60405180910390fd5b805160208201fd5b63f23a6e6160e01b7bffffffffffffffffffffffffffffffffffffffffffffffffffffffff1916817bffffffffffffffffffffffffffffffffffffffffffffffffffffffff191614611ea657846040517f57f447ce000000000000000000000000000000000000000000000000000000008152600401611e9d9190613169565b60405180910390fd5b505b505050505050565b5f8473ffffffffffffffffffffffffffffffffffffffff163b1115612057578373ffffffffffffffffffffffffffffffffffffffff1663bc197c8187878686866040518663ffffffff1660e01b8152600401611f1095949392919061336a565b6020604051808303815f875af1925050508015611f4b57506040513d601f19601f82011682018060405250810190611f48919061333f565b60015b611fcc573d805f8114611f79576040519150601f19603f3d011682016040523d82523d5f602084013e611f7e565b606091505b505f815103611fc457846040517f57f447ce000000000000000000000000000000000000000000000000000000008152600401611fbb9190613169565b60405180910390fd5b805160208201fd5b63bc197c8160e01b7bffffffffffffffffffffffffffffffffffffffffffffffffffffffff1916817bffffffffffffffffffffffffffffffffffffffffffffffffffffffff19161461205557846040517f57f447ce00000000000000000000000000000000000000000000000000000000815260040161204c9190613169565b60405180910390fd5b505b505050505050565b5f604051905090565b5f80fd5b5f80fd5b5f73ffffffffffffffffffffffffffffffffffffffff82169050919050565b5f61209982612070565b9050919050565b6120a98161208f565b81146120b3575f80fd5b50565b5f813590506120c4816120a0565b92915050565b5f819050919050565b6120dc816120ca565b81146120e6575f80fd5b50565b5f813590506120f7816120d3565b92915050565b5f806040838503121561211357612112612068565b5b5f612120858286016120b6565b9250506020612131858286016120e9565b9150509250929050565b612144816120ca565b82525050565b5f60208201905061215d5f83018461213b565b92915050565b5f7fffffffff0000000000000000000000000000000000000000000000000000000082169050919050565b61219781612163565b81146121a1575f80fd5b50565b5f813590506121b28161218e565b92915050565b5f602082840312156121cd576121cc612068565b5b5f6121da848285016121a4565b91505092915050565b5f8115159050919050565b6121f7816121e3565b82525050565b5f6020820190506122105f8301846121ee565b92915050565b5f6020828403121561222b5761222a612068565b5b5f612238848285016120e9565b91505092915050565b5f81519050919050565b5f82825260208201905092915050565b5f5b8381101561227857808201518184015260208101905061225d565b5f8484015250505050565b5f601f19601f8301169050919050565b5f61229d82612241565b6122a7818561224b565b93506122b781856020860161225b565b6122c081612283565b840191505092915050565b5f6020820190508181035f8301526122e38184612293565b905092915050565b5f819050919050565b6122fd816122eb565b8114612307575f80fd5b50565b5f81359050612318816122f4565b92915050565b5f6020828403121561233357612332612068565b5b5f6123408482850161230a565b91505092915050565b612352816122eb565b82525050565b5f60208201905061236b5f830184612349565b92915050565b5f80fd5b7f4e487b71000000000000000000000000000000000000000000000000000000005f52604160045260245ffd5b6123ab82612283565b810181811067ffffffffffffffff821117156123ca576123c9612375565b5b80604052505050565b5f6123dc61205f565b90506123e882826123a2565b919050565b5f67ffffffffffffffff82111561240757612406612375565b5b602082029050602081019050919050565b5f80fd5b5f61242e612429846123ed565b6123d3565b9050808382526020820190506020840283018581111561245157612450612418565b5b835b8181101561247a578061246688826120e9565b845260208401935050602081019050612453565b5050509392505050565b5f82601f83011261249857612497612371565b5b81356124a884826020860161241c565b91505092915050565b5f80fd5b5f67ffffffffffffffff8211156124cf576124ce612375565b5b6124d882612283565b9050602081019050919050565b828183375f83830152505050565b5f612505612500846124b5565b6123d3565b905082815260208101848484011115612521576125206124b1565b5b61252c8482856124e5565b509392505050565b5f82601f83011261254857612547612371565b5b81356125588482602086016124f3565b91505092915050565b5f805f805f60a0868803121561257a57612579612068565b5b5f612587888289016120b6565b9550506020612598888289016120b6565b945050604086013567ffffffffffffffff8111156125b9576125b861206c565b5b6125c588828901612484565b935050606086013567ffffffffffffffff8111156125e6576125e561206c565b5b6125f288828901612484565b925050608086013567ffffffffffffffff8111156126135761261261206c565b5b61261f88828901612534565b9150509295509295909350565b5f806040838503121561264257612641612068565b5b5f61264f8582860161230a565b9250506020612660858286016120b6565b9150509250929050565b5f80fd5b5f8083601f84011261268357612682612371565b5b8235905067ffffffffffffffff8111156126a05761269f61266a565b5b6020830191508360208202830111156126bc576126bb612418565b5b9250929050565b5f8083601f8401126126d8576126d7612371565b5b8235905067ffffffffffffffff8111156126f5576126f461266a565b5b60208301915083602082028301111561271157612710612418565b5b9250929050565b5f805f805f6060868803121561273157612730612068565b5b5f61273e888289016120b6565b955050602086013567ffffffffffffffff81111561275f5761275e61206c565b5b61276b8882890161266e565b9450945050604086013567ffffffffffffffff81111561278e5761278d61206c565b5b61279a888289016126c3565b92509250509295509295909350565b5f67ffffffffffffffff8211156127c3576127c2612375565b5b602082029050602081019050919050565b5f6127e66127e1846127a9565b6123d3565b9050808382526020820190506020840283018581111561280957612808612418565b5b835b81811015612832578061281e88826120b6565b84526020840193505060208101905061280b565b5050509392505050565b5f82601f8301126128505761284f612371565b5b81356128608482602086016127d4565b91505092915050565b5f806040838503121561287f5761287e612068565b5b5f83013567ffffffffffffffff81111561289c5761289b61206c565b5b6128a88582860161283c565b925050602083013567ffffffffffffffff8111156128c9576128c861206c565b5b6128d585828601612484565b9150509250929050565b5f81519050919050565b5f82825260208201905092915050565b5f819050602082019050919050565b612911816120ca565b82525050565b5f6129228383612908565b60208301905092915050565b5f602082019050919050565b5f612944826128df565b61294e81856128e9565b9350612959836128f9565b805f5b838110156129895781516129708882612917565b975061297b8361292e565b92505060018101905061295c565b5085935050505092915050565b5f6020820190508181035f8301526129ae818461293a565b905092915050565b600781106129c2575f80fd5b50565b5f813590506129d3816129b6565b92915050565b5f805f606084860312156129f0576129ef612068565b5b5f6129fd868287016120b6565b9350506020612a0e868287016129c5565b9250506040612a1f868287016120e9565b9150509250925092565b5f8083601f840112612a3e57612a3d612371565b5b8235905067ffffffffffffffff811115612a5b57612a5a61266a565b5b602083019150836001820283011115612a7757612a76612418565b5b9250929050565b5f8060208385031215612a9457612a93612068565b5b5f83013567ffffffffffffffff811115612ab157612ab061206c565b5b612abd85828601612a29565b92509250509250929050565b612ad2816121e3565b8114612adc575f80fd5b50565b5f81359050612aed81612ac9565b92915050565b5f8060408385031215612b0957612b08612068565b5b5f612b16858286016120b6565b9250506020612b2785828601612adf565b9150509250929050565b5f8060408385031215612b4757612b46612068565b5b5f612b54858286016120b6565b9250506020612b65858286016120b6565b9150509250929050565b5f805f805f60a08688031215612b8857612b87612068565b5b5f612b95888289016120b6565b9550506020612ba6888289016120b6565b9450506040612bb7888289016120e9565b9350506060612bc8888289016120e9565b925050608086013567ffffffffffffffff811115612be957612be861206c565b5b612bf588828901612534565b9150509295509295909350565b7f4e487b71000000000000000000000000000000000000000000000000000000005f52602260045260245ffd5b5f6002820490506001821680612c4657607f821691505b602082108103612c5957612c58612c02565b5b50919050565b5f81905092915050565b5f819050815f5260205f209050919050565b5f8154612c8781612c2f565b612c918186612c5f565b9450600182165f8114612cab5760018114612cc057612cf2565b60ff1983168652811515820286019350612cf2565b612cc985612c69565b5f5b83811015612cea57815481890152600182019150602081019050612ccb565b838801955050505b50505092915050565b7f2f000000000000000000000000000000000000000000000000000000000000005f82015250565b5f612d2f600183612c5f565b9150612d3a82612cfb565b600182019050919050565b5f612d4f82612241565b612d598185612c5f565b9350612d6981856020860161225b565b80840191505092915050565b7f2e6a736f6e0000000000000000000000000000000000000000000000000000005f82015250565b5f612da9600583612c5f565b9150612db482612d75565b600582019050919050565b5f612dca8285612c7b565b9150612dd582612d23565b9150612de18284612d45565b9150612dec82612d9d565b91508190509392505050565b612e018161208f565b82525050565b5f604082019050612e1a5f830185612df8565b612e276020830184612df8565b9392505050565b7f4e487b71000000000000000000000000000000000000000000000000000000005f52603260045260245ffd5b5f60208284031215612e7057612e6f612068565b5b5f612e7d848285016129c5565b91505092915050565b7f4e487b71000000000000000000000000000000000000000000000000000000005f52602160045260245ffd5b5f604082019050612ec65f83018561213b565b612ed3602083018461213b565b9392505050565b5f82905092915050565b5f6020601f8301049050919050565b5f82821b905092915050565b5f60088302612f2e7fffffffffffffffffffffffffffffffffffffffffffffffffffffffffffffffff82612ef3565b612f388683612ef3565b95508019841693508086168417925050509392505050565b5f819050919050565b5f612f73612f6e612f69846120ca565b612f50565b6120ca565b9050919050565b5f819050919050565b612f8c83612f59565b612fa0612f9882612f7a565b848454612eff565b825550505050565b5f90565b612fb4612fa8565b612fbf818484612f83565b505050565b5b81811015612fe257612fd75f82612fac565b600181019050612fc5565b5050565b601f82111561302757612ff881612c69565b61300184612ee4565b81016020851015613010578190505b61302461301c85612ee4565b830182612fc4565b50505b505050565b5f82821c905092915050565b5f6130475f198460080261302c565b1980831691505092915050565b5f61305f8383613038565b9150826002028217905092915050565b6130798383612eda565b67ffffffffffffffff81111561309257613091612375565b5b61309c8254612c2f565b6130a7828285612fe6565b5f601f8311600181146130d4575f84156130c2578287013590505b6130cc8582613054565b865550613133565b601f1984166130e286612c69565b5f5b82811015613109578489013582556001820191506020850194506020810190506130e4565b868310156131265784890135613122601f891682613038565b8355505b6001600288020188555050505b50505050505050565b7f4e487b71000000000000000000000000000000000000000000000000000000005f52601260045260245ffd5b5f60208201905061317c5f830184612df8565b92915050565b5f6040820190506131955f830185612df8565b6131a26020830184612349565b9392505050565b5f6080820190506131bc5f830187612df8565b6131c9602083018661213b565b6131d6604083018561213b565b6131e3606083018461213b565b95945050505050565b7f4e487b71000000000000000000000000000000000000000000000000000000005f52601160045260245ffd5b5f613223826120ca565b915061322e836120ca565b9250828201905080821115613246576132456131ec565b5b92915050565b5f6040820190508181035f830152613264818561293a565b90508181036020830152613278818461293a565b90509392505050565b5f81519050919050565b5f82825260208201905092915050565b5f6132a582613281565b6132af818561328b565b93506132bf81856020860161225b565b6132c881612283565b840191505092915050565b5f60a0820190506132e65f830188612df8565b6132f36020830187612df8565b613300604083018661213b565b61330d606083018561213b565b818103608083015261331f818461329b565b90509695505050505050565b5f815190506133398161218e565b92915050565b5f6020828403121561335457613353612068565b5b5f6133618482850161332b565b91505092915050565b5f60a08201905061337d5f830188612df8565b61338a6020830187612df8565b818103604083015261339c818661293a565b905081810360608301526133b0818561293a565b905081810360808301526133c4818461329b565b9050969550505050505056fea264697066735822122029518bef4bb24b4fd09173a5ee30c25ec6e415408b77f21d3e248a9e34dd8d5a64736f6c63430008180033","linkReferences":{}},"methodIdentifiers":{"BURNER_ROLE()":"282c51f3","DEFAULT_ADMIN_ROLE()":"a217fddf","MINTER_ROLE()":"d5391393","balanceOf(address,uint256)":"00fdd58e","balanceOfBatch(address[],uint256[])":"4e1273f4","burnAuthorized(address,uint8,uint256)":"512d00c2","burnBatchAuthorized(address,uint8[],uint256[])":"37da2973","getRoleAdmin(bytes32)":"248a9ca3","grantRole(bytes32,address)":"2f2ff15d","hasRole(bytes32,address)":"91d14854","isApprovedForAll(address,address)":"e985e9c5","mintAuthorized(address,uint8,uint256)":"8a203756","mintBatchAuthorized(address,uint8[],uint256[])":"d61669bc","renounceRole(bytes32,address)":"36568abe","revokeRole(bytes32,address)":"d547741f","safeBatchTransferFrom(address,address,uint256[],uint256[],bytes)":"2eb2c2d6","safeTransferFrom(address,address,uint256,uint256,bytes)":"f242432a","setApprovalForAll(address,bool)":"a22cb465","setBaseURI(string)":"55f804b3","supportsInterface(bytes4)":"01ffc9a7","uri(uint256)":"0e89341c"},"id":47}