{"abi":[{"type":"constructor","inputs":[{"name":"it","type":"address","internalType":"contract ItemNFT721"},{"name":"mt","type":"address","internalType":"contract MagicToken"}],"stateMutability":"nonpayable"},{"type":"function","name":"DEFAULT_ADMIN_ROLE","inputs":[],"outputs":[{"name":"","type":"bytes32","internalType":"bytes32"}],"stateMutability":"view"},{"type":"function","name":"getRoleAdmin","inputs":[{"name":"role","type":"bytes32","internalType":"bytes32"}],"outputs":[{"name":"","type":"bytes32","internalType":"bytes32"}],"stateMutability":"view"},{"type":"function","name":"grantRole","inputs":[{"name":"role","type":"bytes32","internalType":"bytes32"},{"name":"account","type":"address","internalType":"address"}],"outputs":[],"stateMutability":"nonpayable"},{"type":"function","name":"hasRole","inputs":[{"name":"role","type":"bytes32","internalType":"bytes32"},{"name":"account","type":"address","internalType":"address"}],"outputs":[{"name":"","type":"bool","internalType":"bool"}],"stateMutability":"view"},{"type":"function","name":"items","inputs":[],"outputs":[{"name":"","type":"address","internalType":"contract ItemNFT721"}],"stateMutability":"view"},{"type":"function","name":"magic","inputs":[],"outputs":[{"name":"","type":"address","internalType":"contract MagicToken"}],"stateMutability":"view"},{"type":"function","name":"priceByKind","inputs":[{"name":"","type":"uint8","internalType":"enum ItemTypes.ItemKind"}],"outputs":[{"name":"","type":"uint256","internalType":"uint256"}],"stateMutability":"view"},{"type":"function","name":"renounceRole","inputs":[{"name":"role","type":"bytes32","internalType":"bytes32"},{"name":"callerConfirmation","type":"address","internalType":"address"}],"outputs":[],"stateMutability":"nonpayable"},{"type":"function","name":"revokeRole","inputs":[{"name":"role","type":"bytes32","internalType":"bytes32"},{"name":"account","type":"address","internalType":"address"}],"outputs":[],"stateMutability":"nonpayable"},{"type":"function","name":"sell","inputs":[{"name":"tokenId","type":"uint256","internalType":"uint256"}],"outputs":[],"stateMutability":"nonpayable"},{"type":"function","name":"setPrice","inputs":[{"name":"kind","type":"uint8","internalType":"enum ItemTypes.ItemKind"},{"name":"price","type":"uint256","internalType":"uint256"}],"outputs":[],"stateMutability":"nonpayable"},{"type":"function","name":"supportsInterface","inputs":[{"name":"interfaceId","type":"bytes4","internalType":"bytes4"}],"outputs":[{"name":"","type":"bool","internalType":"bool"}],"stateMutability":"view"},{"type":"event","name":"PriceSet","inputs":[{"name":"kind","type":"uint8","indexed":true,"internalType":"enum ItemTypes.ItemKind"},{"name":"price","type":"uint256","indexed":false,"internalType":"uint256"}],"anonymous":false},{"type":"event","name":"RoleAdminChanged","inputs":[{"name":"role","type":"bytes32","indexed":true,"internalType":"bytes32"},{"name":"previousAdminRole","type":"bytes32","indexed":true,"internalType":"bytes32"},{"name":"newAdminRole","type":"bytes32","indexed":true,"internalType":"bytes32"}],"anonymous":false},{"type":"event","name":"RoleGranted","inputs":[{"name":"role","type":"bytes32","indexed":true,"internalType":"bytes32"},{"name":"account","type":"address","indexed":true,"internalType":"address"},{"name":"sender","type":"address","indexed":true,"internalType":"address"}],"anonymous":false},{"type":"event","name":"RoleRevoked","inputs":[{"name":"role","type":"bytes32","indexed":true,"internalType":"bytes32"},{"name":"account","type":"address","indexed":true,"internalType":"address"},{"name":"sender","type":"address","indexed":true,"internalType":"address"}],"anonymous":false},{"type":"event","name":"Sold","inputs":[{"name":"seller","type":"address","indexed":true,"internalType":"address"},{"name":"tokenId","type":"uint256","indexed":true,"internalType":"uint256"},{"name":"kind","type":"uint8","indexed":false,"internalType":"enum ItemTypes.ItemKind"},{"name":"reward","type":"uint256","indexed":false,"internalType":"uint256"}],"anonymous":false},{"type":"error","name":"AccessControlBadConfirmation","inputs":[]},{"type":"error","name":"AccessControlUnauthorizedAccount","inputs":[{"name":"account","type":"address","internalType":"address"},{"name":"neededRole","type":"bytes32","internalType":"bytes32"}]},{"type":"error","name":"ReentrancyGuardReentrantCall","inputs":[]}],"bytecode":{"object":"0x60c060405234801562000010575f80fd5b506040516200151a3803806200151a8339818101604052810190620000369190620002e1565b600180819055508173ffffffffffffffffffffffffffffffffffffffff1660808173ffffffffffffffffffffffffffffffffffffffff16815250508073ffffffffffffffffffffffffffffffffffffffff1660a08173ffffffffffffffffffffffffffffffffffffffff1681525050620000b95f801b33620000c260201b60201c565b50505062000326565b5f620000d58383620001bd60201b60201c565b620001b35760015f808581526020019081526020015f205f015f8473ffffffffffffffffffffffffffffffffffffffff1673ffffffffffffffffffffffffffffffffffffffff1681526020019081526020015f205f6101000a81548160ff0219169083151502179055506200014f6200022060201b60201c565b73ffffffffffffffffffffffffffffffffffffffff168273ffffffffffffffffffffffffffffffffffffffff16847f2f8788117e7eff1d82e926ec794901d17c78024a50270940304540a733656f0d60405160405180910390a460019050620001b7565b5f90505b92915050565b5f805f8481526020019081526020015f205f015f8373ffffffffffffffffffffffffffffffffffffffff1673ffffffffffffffffffffffffffffffffffffffff1681526020019081526020015f205f9054906101000a900460ff16905092915050565b5f33905090565b5f80fd5b5f73ffffffffffffffffffffffffffffffffffffffff82169050919050565b5f62000256826200022b565b9050919050565b5f62000269826200024a565b9050919050565b6200027b816200025d565b811462000286575f80fd5b50565b5f81519050620002998162000270565b92915050565b5f620002ab826200024a565b9050919050565b620002bd816200029f565b8114620002c8575f80fd5b50565b5f81519050620002db81620002b2565b92915050565b5f8060408385031215620002fa57620002f962000227565b5b5f620003098582860162000289565b92505060206200031c85828601620002cb565b9150509250929050565b60805160a0516111b6620003645f395f81816102d701526107bc01525f81816104c7015281816105160152818161061f015261073401526111b65ff3fe608060405234801561000f575f80fd5b50600436106100b2575f3560e01c8063816436821161006f578063816436821461018857806391d14854146101b8578063a217fddf146101e8578063c06fad0614610206578063d547741f14610224578063e4849b3214610240576100b2565b806301ffc9a7146100b65780630d854646146100e6578063248a9ca3146101045780632f2ff15d1461013457806336568abe146101505780636a00670b1461016c575b5f80fd5b6100d060048036038101906100cb9190610bf0565b61025c565b6040516100dd9190610c35565b60405180910390f35b6100ee6102d5565b6040516100fb9190610cc8565b60405180910390f35b61011e60048036038101906101199190610d14565b6102f9565b60405161012b9190610d4e565b60405180910390f35b61014e60048036038101906101499190610da2565b610315565b005b61016a60048036038101906101659190610da2565b610337565b005b61018660048036038101906101819190610e36565b6103b2565b005b6101a2600480360381019061019d9190610e74565b610447565b6040516101af9190610eae565b60405180910390f35b6101d260048036038101906101cd9190610da2565b61045c565b6040516101df9190610c35565b60405180910390f35b6101f06104bf565b6040516101fd9190610d4e565b60405180910390f35b61020e6104c5565b60405161021b9190610ee7565b60405180910390f35b61023e60048036038101906102399190610da2565b6104e9565b005b61025a60048036038101906102559190610f00565b61050b565b005b5f7f7965db0b000000000000000000000000000000000000000000000000000000007bffffffffffffffffffffffffffffffffffffffffffffffffffffffff1916827bffffffffffffffffffffffffffffffffffffffffffffffffffffffff191614806102ce57506102cd826108a1565b5b9050919050565b7f000000000000000000000000000000000000000000000000000000000000000081565b5f805f8381526020019081526020015f20600101549050919050565b61031e826102f9565b6103278161090a565b610331838361091e565b50505050565b61033f610a07565b73ffffffffffffffffffffffffffffffffffffffff168173ffffffffffffffffffffffffffffffffffffffff16146103a3576040517f6697b23200000000000000000000000000000000000000000000000000000000815260040160405180910390fd5b6103ad8282610a0e565b505050565b5f801b6103be8161090a565b8160025f8560038111156103d5576103d4610f2b565b5b60038111156103e7576103e6610f2b565b5b81526020019081526020015f208190555082600381111561040b5761040a610f2b565b5b7f9968e5953e3a2743f99ce40212438cfd1f1c35e05af7149c1459d4c2b50ba3298360405161043a9190610eae565b60405180910390a2505050565b6002602052805f5260405f205f915090505481565b5f805f8481526020019081526020015f205f015f8373ffffffffffffffffffffffffffffffffffffffff1673ffffffffffffffffffffffffffffffffffffffff1681526020019081526020015f205f9054906101000a900460ff16905092915050565b5f801b81565b7f000000000000000000000000000000000000000000000000000000000000000081565b6104f2826102f9565b6104fb8161090a565b6105058383610a0e565b50505050565b610513610af7565b5f7f000000000000000000000000000000000000000000000000000000000000000073ffffffffffffffffffffffffffffffffffffffff16636352211e836040518263ffffffff1660e01b815260040161056d9190610eae565b602060405180830381865afa158015610588573d5f803e3d5ffd5b505050506040513d601f19601f820116820180604052508101906105ac9190610f6c565b90503373ffffffffffffffffffffffffffffffffffffffff168173ffffffffffffffffffffffffffffffffffffffff161461061c576040517f08c379a000000000000000000000000000000000000000000000000000000000815260040161061390610ff1565b60405180910390fd5b5f7f000000000000000000000000000000000000000000000000000000000000000073ffffffffffffffffffffffffffffffffffffffff1663748fe536846040518263ffffffff1660e01b81526004016106769190610eae565b602060405180830381865afa158015610691573d5f803e3d5ffd5b505050506040513d601f19601f820116820180604052508101906106b59190611023565b90505f60025f8360038111156106ce576106cd610f2b565b5b60038111156106e0576106df610f2b565b5b81526020019081526020015f205490505f8111610732576040517f08c379a000000000000000000000000000000000000000000000000000000000815260040161072990611098565b60405180910390fd5b7f000000000000000000000000000000000000000000000000000000000000000073ffffffffffffffffffffffffffffffffffffffff16639f60e9e333866040518363ffffffff1660e01b815260040161078d9291906110c5565b5f604051808303815f87803b1580156107a4575f80fd5b505af11580156107b6573d5f803e3d5ffd5b505050507f000000000000000000000000000000000000000000000000000000000000000073ffffffffffffffffffffffffffffffffffffffff166340c10f1933836040518363ffffffff1660e01b81526004016108159291906110c5565b5f604051808303815f87803b15801561082c575f80fd5b505af115801561083e573d5f803e3d5ffd5b50505050833373ffffffffffffffffffffffffffffffffffffffff167f3e4144a1a374b040223728323ae1b59bd2f12bda3d6b434050569b8000841971848460405161088b929190611132565b60405180910390a350505061089e610b3d565b50565b5f7f01ffc9a7000000000000000000000000000000000000000000000000000000007bffffffffffffffffffffffffffffffffffffffffffffffffffffffff1916827bffffffffffffffffffffffffffffffffffffffffffffffffffffffff1916149050919050565b61091b81610916610a07565b610b46565b50565b5f610929838361045c565b6109fd5760015f808581526020019081526020015f205f015f8473ffffffffffffffffffffffffffffffffffffffff1673ffffffffffffffffffffffffffffffffffffffff1681526020019081526020015f205f6101000a81548160ff02191690831515021790555061099a610a07565b73ffffffffffffffffffffffffffffffffffffffff168273ffffffffffffffffffffffffffffffffffffffff16847f2f8788117e7eff1d82e926ec794901d17c78024a50270940304540a733656f0d60405160405180910390a460019050610a01565b5f90505b92915050565b5f33905090565b5f610a19838361045c565b15610aed575f805f8581526020019081526020015f205f015f8473ffffffffffffffffffffffffffffffffffffffff1673ffffffffffffffffffffffffffffffffffffffff1681526020019081526020015f205f6101000a81548160ff021916908315150217905550610a8a610a07565b73ffffffffffffffffffffffffffffffffffffffff168273ffffffffffffffffffffffffffffffffffffffff16847ff6391f5c32d9c69d2a47ea670b442974b53935d1edc7fd64eb21e047a839171b60405160405180910390a460019050610af1565b5f90505b92915050565b600260015403610b33576040517f3ee5aeb500000000000000000000000000000000000000000000000000000000815260040160405180910390fd5b6002600181905550565b60018081905550565b610b50828261045c565b610b935780826040517fe2517d3f000000000000000000000000000000000000000000000000000000008152600401610b8a929190611159565b60405180910390fd5b5050565b5f80fd5b5f7fffffffff0000000000000000000000000000000000000000000000000000000082169050919050565b610bcf81610b9b565b8114610bd9575f80fd5b50565b5f81359050610bea81610bc6565b92915050565b5f60208284031215610c0557610c04610b97565b5b5f610c1284828501610bdc565b91505092915050565b5f8115159050919050565b610c2f81610c1b565b82525050565b5f602082019050610c485f830184610c26565b92915050565b5f73ffffffffffffffffffffffffffffffffffffffff82169050919050565b5f819050919050565b5f610c90610c8b610c8684610c4e565b610c6d565b610c4e565b9050919050565b5f610ca182610c76565b9050919050565b5f610cb282610c97565b9050919050565b610cc281610ca8565b82525050565b5f602082019050610cdb5f830184610cb9565b92915050565b5f819050919050565b610cf381610ce1565b8114610cfd575f80fd5b50565b5f81359050610d0e81610cea565b92915050565b5f60208284031215610d2957610d28610b97565b5b5f610d3684828501610d00565b91505092915050565b610d4881610ce1565b82525050565b5f602082019050610d615f830184610d3f565b92915050565b5f610d7182610c4e565b9050919050565b610d8181610d67565b8114610d8b575f80fd5b50565b5f81359050610d9c81610d78565b92915050565b5f8060408385031215610db857610db7610b97565b5b5f610dc585828601610d00565b9250506020610dd685828601610d8e565b9150509250929050565b60048110610dec575f80fd5b50565b5f81359050610dfd81610de0565b92915050565b5f819050919050565b610e1581610e03565b8114610e1f575f80fd5b50565b5f81359050610e3081610e0c565b92915050565b5f8060408385031215610e4c57610e4b610b97565b5b5f610e5985828601610def565b9250506020610e6a85828601610e22565b9150509250929050565b5f60208284031215610e8957610e88610b97565b5b5f610e9684828501610def565b91505092915050565b610ea881610e03565b82525050565b5f602082019050610ec15f830184610e9f565b92915050565b5f610ed182610c97565b9050919050565b610ee181610ec7565b82525050565b5f602082019050610efa5f830184610ed8565b92915050565b5f60208284031215610f1557610f14610b97565b5b5f610f2284828501610e22565b91505092915050565b7f4e487b71000000000000000000000000000000000000000000000000000000005f52602160045260245ffd5b5f81519050610f6681610d78565b92915050565b5f60208284031215610f8157610f80610b97565b5b5f610f8e84828501610f58565b91505092915050565b5f82825260208201905092915050565b7f6e6f74206f776e657200000000000000000000000000000000000000000000005f82015250565b5f610fdb600983610f97565b9150610fe682610fa7565b602082019050919050565b5f6020820190508181035f83015261100881610fcf565b9050919050565b5f8151905061101d81610de0565b92915050565b5f6020828403121561103857611037610b97565b5b5f6110458482850161100f565b91505092915050565b7f7072696365206e6f7420736574000000000000000000000000000000000000005f82015250565b5f611082600d83610f97565b915061108d8261104e565b602082019050919050565b5f6020820190508181035f8301526110af81611076565b9050919050565b6110bf81610d67565b82525050565b5f6040820190506110d85f8301856110b6565b6110e56020830184610e9f565b9392505050565b600481106110fd576110fc610f2b565b5b50565b5f81905061110d826110ec565b919050565b5f61111c82611100565b9050919050565b61112c81611112565b82525050565b5f6040820190506111455f830185611123565b6111526020830184610e9f565b9392505050565b5f60408201905061116c5f8301856110b6565b6111796020830184610d3f565b939250505056fea26469706673582212206628fab34478e4df9ca7ea630e9472ef9c7d15bd55fdfa5e6eec5db95ba3a38564736f6c63430008180033","linkReferences":{}},"methodIdentifiers":{"DEFAULT_ADMIN_ROLE()":"a217fddf","getRoleAdmin(bytes32)":"248a9ca3","grantRole(bytes32,address)":"2f2ff15d","hasRole(bytes32,address)":"91d14854","items()":"c06fad06","magic()":"0d854646","priceByKind(uint8)":"81643682","renounceRole(bytes32,address)":"36568abe","revokeRole(bytes32,address)":"d547741f","sell(uint256)":"e4849b32","setPrice(uint8,uint256)":"6a00670b","supportsInterface(bytes4)":"01ffc9a7"},"id":34}